:020000040800F2
:100000000050002041E0000851DF000855DF0008E3
:1000100059DF00085DDF000861DF00080000000014
:1000200000000000000000000000000065DF000884
:1000300069DF0008000000006DDF000871DF0008C4
:1000400089E0000889E0000889E0000881DF0008F5
:1000500089E0000889E000088DDF000889E00008D9
:1000600089E0000889E0000889E0000889E00008CC
:1000700089E0000889E0000889E0000889E00008BC
:1000800089E0000889E0000889E0000889E00008AC
:1000900089E0000889E0000889E0000895DF000891
:1000A00089E00008A9DF000889E0000889E000086D
:1000B00089E00008B5DF0008C1DF000889E000081A
:1000C00089E00008CDDF000889E0000889E0000829
:1000D00089E00008D9DF0008E5DF000889E00008B2
:1000E00089E0000889E0000889E0000800000000BD
:1000F0000000000000000000000000000000000000
:0C01000000000000000000005FF808F1A3
:1001100010B5054C237833B9044B13B10448AFF341
:1001200000800123237010BDE801002000000000C2
:10013000201801080C4B43B10C4810B50C49AFF323
:1001400000800C48036823B910BD0A48036833B91E
:100150007047094B002BF7D0BDE810401847064BFD
:10016000002BF5D0184700BF000000002018010840
:10017000EC010020E40100200000000081F00041BB
:1001800002E000BF83F0004330B54FEA41044FEA7C
:10019000430594EA050F08BF90EA020F1FBF54EA17
:1001A000000C55EA020C7FEA645C7FEA655C00F0B3
:1001B000E2804FEA5454D4EB5555B8BF6D420CDD84
:1001C0002C4480EA020281EA030382EA000083EA07
:1001D000010180EA020281EA0303362D88BF30BDA7
:1001E00011F0004F4FEA01314FF4801C4CEA1131FD
:1001F00002D0404261EB410113F0004F4FEA03335C
:100200004CEA133302D0524263EB430394EA050FE6
:1002100000F0A780A4F10104D5F1200E0DDB02FA55
:100220000EFC22FA05F2801841F1000103FA0EF2E9
:10023000801843FA05F359410EE0A5F120050EF1AF
:10024000200E012A03FA0EFC28BF4CF0020C43FAE0
:1002500005F3C01851EBE37101F0004507D54FF0ED
:10026000000EDCF1000C7EEB00006EEB0101B1F53D
:10027000801F1BD3B1F5001F0CD349085FEA300083
:100280004FEA3C0C04F101044FEA445212F5800F8E
:1002900080F09A80BCF1004F08BF5FEA500C50F12B
:1002A000000041EB045141EA050130BD5FEA4C0C0E
:1002B000404141EB010111F4801FA4F10104E9D197
:1002C00091F0000F04BF01460020B1FA81F308BF8E
:1002D0002033A3F10B03B3F120020CDA0C3208DD5A
:1002E00002F1140CC2F10C0201FA0CF021FA02F135
:1002F0000CE002F11402D8BFC2F1200C01FA02F1A5
:1003000020FA0CFCDCBF41EA0C019040E41AA2BFC9
:1003100001EB0451294330BD6FEA04041F3C1CDA91
:100320000C340EDC04F11404C4F1200220FA04F0B1
:1003300001FA02F340EA030021FA04F345EA03015B
:1003400030BDC4F10C04C4F1200220FA02F001FA1D
:1003500004F340EA0300294630BD21FA04F029469F
:1003600030BD94F0000F83F4801306BF81F4801138
:100370000134013D4EE77FEA645C18BF7FEA655CAB
:1003800029D094EA050F08BF90EA020F05D054EA7D
:10039000000C04BF1946104630BD91EA030F1EBF82
:1003A0000021002030BD5FEA545C05D14000494186
:1003B00028BF41F0004130BD14F580043CBF01F579
:1003C000801130BD01F0004545F0FE4141F470015F
:1003D0004FF0000030BD7FEA645C1ABF194610463A
:1003E0007FEA655C1CBF0B46024650EA013406BF3B
:1003F00052EA033591EA030F41F4002130BD00BFFA
:1004000090F0000F04BF0021704730B54FF48064B6
:1004100004F132044FF000054FF0000150E700BF37
:1004200090F0000F04BF0021704730B54FF4806496
:1004300004F1320410F0004548BF40424FF0000183
:100440003EE700BF42004FEAE2014FEA31014FEAC6
:1004500002701FBF12F07F4393F07F4F81F0605115
:10046000704792F0000F14BF93F07F4F704730B584
:100470004FF4607401F0004521F0004120E700BF17
:1004800050EA010208BF704730B54FF000050AE09E
:1004900050EA010208BF704730B511F0004502D59F
:1004A000404261EB41014FF4806404F132045FEAA1
:1004B000915C3FF4DCAE4FF003025FEADC0C18BF46
:1004C00003325FEADC0C18BF033202EBDC02C2F13C
:1004D000200300FA03FC20FA02F001FA03FE40EACE
:1004E0000E0021FA02F11444C1E600BF70B54FF0CE
:1004F000FF0C4CF4E06C1CEA11541DBF1CEA1355B0
:1005000094EA0C0F95EA0C0F00F0DEF82C4481EA17
:10051000030621EA4C5123EA4C5350EA013518BF37
:1005200052EA033541F4801143F4801338D0A0FB24
:1005300002CE4FF00005E1FB02E506F00042E0FBD1
:1005400003E54FF00006E1FB03569CF0000F18BFD7
:100550004EF0010EA4F1FF04B6F5007F64F540747F
:1005600004D25FEA4E0E6D4146EB060642EAC62112
:1005700041EA55514FEAC52040EA5E504FEACE2E7F
:10058000B4F1FD0C88BFBCF5E06F1ED8BEF1004F82
:1005900008BF5FEA500E50F1000041EB045170BDFE
:1005A00006F0004646EA010140EA020081EA030142
:1005B000B4EB5C04C2BFD4EB0C0541EA045170BD3E
:1005C00041F480114FF0000E013C00F3AB8014F1B8
:1005D000360FDEBF002001F0004170BDC4F1000401
:1005E000203C35DA0C341BDC04F11404C4F1200582
:1005F00000FA05F320FA04F001FA05F240EA0200DD
:1006000001F0004221F0004110EBD37021FA04F612
:1006100042EB06015EEA430E08BF20EAD37070BDCC
:10062000C4F10C04C4F1200500FA04F320FA05F02B
:1006300001FA04F240EA020001F0004110EBD3702D
:1006400041F100015EEA430E08BF20EAD37070BD9D
:10065000C4F1200500FA05F24EEA020E20FA04F376
:1006600001FA05F243EA020321FA04F001F0004125
:1006700021FA04F220EA020000EBD3705EEA430E96
:1006800008BF20EAD37070BD94F0000F0FD101F0C5
:100690000046400041EB010111F4801F08BF013CFE
:1006A000F7D041EA060195F0000F18BF704703F03C
:1006B0000046520043EB030313F4801F08BF013DC3
:1006C000F7D043EA0603704794EA0C0F0CEA13557F
:1006D00018BF95EA0C0F0CD050EA410618BF52EA39
:1006E0004306D1D181EA030101F000414FF000003F
:1006F00070BD50EA410606BF1046194652EA43064D
:1007000019D094EA0C0F02D150EA013613D195EAC0
:100710000C0F05D152EA03361CBF104619460AD108
:1007200081EA030101F0004141F0FE4141F4700112
:100730004FF0000070BD41F0FE4141F4780170BD02
:1007400070B54FF0FF0C4CF4E06C1CEA11541DBF67
:100750001CEA135594EA0C0F95EA0C0F00F0A7F869
:10076000A4EB050481EA030E52EA03354FEA013196
:1007700000F088804FEA03334FF0805545EA1313A9
:1007800043EA12634FEA022245EA111545EA106571
:100790004FEA00260EF000419D4208BF964244F108
:1007A000FD0404F5407402D25B084FEA3202B61A27
:1007B00065EB03055B084FEA32024FF480104FF4FB
:1007C000002CB6EB020E75EB030E22BFB61A75466F
:1007D00040EA0C005B084FEA3202B6EB020E75EB02
:1007E000030E22BFB61A754640EA5C005B084FEA6A
:1007F0003202B6EB020E75EB030E22BFB61A754637
:1008000040EA9C005B084FEA3202B6EB020E75EB41
:10081000030E22BFB61A754640EADC0055EA060E02
:1008200018D04FEA051545EA16754FEA06164FEA45
:10083000C30343EA52734FEAC2025FEA1C1CC0D1F1
:1008400011F4801F0BD141EA00014FF000004FF07E
:10085000004CB6E711F4801F04BF01430020B4F13F
:10086000FD0C88BFBCF5E06F3FF6AFAEB5EB030CF7
:1008700004BFB6EB020C5FEA500C50F1000041EBF4
:10088000045170BD0EF0004E4EEA113114EB5C04C1
:10089000C2BFD4EB0C0541EA045170BD41F4801194
:1008A0004FF0000E013C90E645EA060E8DE60CEA9C
:1008B000135594EA0C0F08BF95EA0C0F3FF43BAFB9
:1008C00094EA0C0F0AD150EA01347FF434AF95EA70
:1008D0000C0F7FF425AF104619462CE795EA0C0F54
:1008E00006D152EA03353FF4FDAE1046194622E721
:1008F00050EA410618BF52EA43067FF4C5AE50EAFB
:1009000041047FF40DAF52EA43057FF4EBAE12E7EA
:100910004FF0FF3C06E000BF4FF0010C02E000BFCB
:100920004FF0010C4DF804CD4FEA410C7FEA6C5CAE
:100930004FEA430C18BF7FEA6C5C1BD001B050EA51
:10094000410C0CBF52EA430C91EA030F02BF90EA3C
:10095000020F0020704710F1000F91EA030F58BFFB
:10096000994208BF90422CBFD8176FEAE37040F05D
:10097000010070474FEA410C7FEA6C5C02D150EAFB
:10098000013C07D14FEA430C7FEA6C5CD6D152EAB6
:10099000033CD3D05DF8040B704700BF844610467B
:1009A00062468C461946634600E000BF01B5FFF77A
:1009B000B7FF002848BF10F1000F01BD4DF808ED4A
:1009C000FFF7F4FF0CBF012000205DF808FB00BF1B
:1009D0004DF808EDFFF7EAFF34BF012000205DF875
:1009E00008FB00BF4DF808EDFFF7E0FF94BF0120C2
:1009F00000205DF808FB00BF4DF808EDFFF7CEFFC3
:100A000094BF012000205DF808FB00BF4DF808ED01
:100A1000FFF7C4FF34BF012000205DF808FB00BFD2
:100A20004FEA410212F5001215D211D56FF4787316
:100A3000B3EB625212D94FEAC12343F0004343EAB9
:100A4000505311F0004F23FA02F018BF4042704794
:100A50004FF00000704750EA013005D111F000401E
:100A600008BF6FF0004070474FF00000704700BFB4
:100A700010F8012B11F8013B012A28BF9A42F7D048
:100A8000D01A7047034613F8012B002AFBD1181A1D
:100A9000013870474FEA410C7FEA6C5C02D150EAA2
:100AA000013C0AD14FEA430C7FEA6C5C02D152EA66
:100AB000033C02D14FF0000070474FF00100704737
:100AC0004A0011D212F5001211D20DD56FF47873CD
:100AD000B3EB62520ED44FEAC12343F0004343EA22
:100AE000505323FA02F070474FF00000704750EA6D
:100AF000013002D14FF0FF3070474FF000007047D7
:100B00004FF47A7370B50D4D0D4A29781268B3FB16
:100B1000F1F30646B2FBF3F000F09EF808B90F2E91
:100B200001D9012070BD0446024631464FF0FF3026
:100B300000F050F86E60204670BD00BF000000203D
:100B400010000020074A08B51368032043F0100383
:100B5000136000F02DF80020FFF7D2FF0DF096F89B
:100B6000002008BD00200240034A044B11681B7896
:100B70000B441360704700BF60020020000000209B
:100B8000014B1868704700BF6002002038B504466A
:100B9000FFF7F6FF631C054602D0044B1B781C448C
:100BA000FFF7EEFF401B8442FAD838BD000000205A
:100BB0004FF6FF01064A0002D36800F4E0600B40E4
:100BC00043F0BF6343F400330343D360704700BF77
:100BD00000ED00E0184B70B4DC68C4F30224C4F1EB
:100BE0000706042E04F1040328BF0426062B17D998
:100BF0000125033CA540013D2A400123B340013BB0
:100C00001940A140002841EA02010CDB090100F172
:100C10006040C9B200F5614080F8001370BC7047B5
:100C200000221446E9E7054B00F00F000901C9B2A4
:100C30000344197670BC704700ED00E0FCEC00E066
:100C4000012300F01F01034A40098B4042F8203085
:100C5000704700BF00E100E00138B0F1807F0DD2A5
:100C600030B4F02500220721054B064C586084F86B
:100C70002350104630BC9A601960704701207047BD
:100C800010E000E000ED00E0044A042813680CBF07
:100C900043F0040323F004031360704710E000E006
:100CA000704700BF08B5FFF7FBFF08BD38B590F8E7
:100CB0002130022B04D0042201248263204638BD57
:100CC00003681D491A688B4222F00E021A601A68E6
:100CD00022F001021A6021D0184A93421CD014322B
:100CE00093421FD0143293421FD0143293421FD02C
:100CF000143293420CBF4FF480134FF080730121E4
:100D000000240F4D426B6B6080F8211080F820406A
:100D100032B19047204638BD1023F0E70123EEE7BB
:100D20001446CBE74FF48073E9E74FF48053E6E7CE
:100D30004FF48033E3E700BF080002401C0002408C
:100D4000000002402DE9F04F4FF0000885B0434607
:100D50006FF01F06DFF8E0E1DFF8E0C1704F0090B0
:100D600005E00133102B06F1040600F08B80012210
:100D70000C689A401440A242F3D14D68122D00F045
:100D8000A58000F28E80022D00F0A78040F28380C3
:100D9000032D00F09F80112D02D1CA6802F10408D2
:100DA000FF2C72D8009A4FEA830A914612680F25E9
:100DB00005FA0AFB22EA0B0208FA0AFA42EA0A02D8
:100DC000C9F80020D1F804A01AF0805FC9D0DEF87D
:100DD000189023F0030249F00109CEF81890DEF8CC
:100DE000189002F1804209F00109CDF80C9002F54B
:100DF000803203F00309DDF80CB04FEA8909D2F81C
:100E000008B005FA09F52BEA050001900098604545
:100E100079D0444DA84279D0434D0098A8427AD069
:100E2000424D0098A8420CBF4FF0030B4FF0040B4B
:100E30000BFA09F901981AF4803F40EA0905956018
:100E40003A6803F1010314BF2243A2433A607A686F
:100E50001AF4003F14BF2243A2437A60BA681AF41E
:100E6000801F14BF2243A243BA60FA681AF4001F1D
:100E700014BF144322EA0404102BFC6006F104069C
:100E80007FF475AF05B0BDE8F08F0098B2464268B8
:100E900000F104098BE7A5B1012D81D1D1F80C80B7
:100EA0007EE7234885420CD01BD92248854208D0D2
:100EB00000F58030854204D0DFF884904D457FF402
:100EC0006FAF8D68BDB94FF0040869E7CA6802F1D9
:100ED0000C0865E74FF0000862E7CA6802F10808ED
:100EE0005EE7DFF860904D45EBD009F580394D4560
:100EF0007FF456AFE5E70098012D0CBF0261426117
:100F00004FF008084CE74FF0000993E74FF0010B52
:100F10000BFA09F98EE74FF0020B0BFA09F989E792
:100F200000040140000C0140001001400014014089
:100F300000002110000031100010024000080140A4
:100F400000002210000011108368194214BF012014
:100F50000020704702B9090401617047C368594015
:100F6000C1607047044A5169014200D1704708B519
:100F7000506103F061FA08BD000401402DE9F84317
:100F8000074690469946C1F307468DB23C68012E4C
:100F90001FD0A06935EA000314BF0120002000B370
:100FA000606943051FD4B8F1FF3FF0D0B8F1000FDE
:100FB00005D0FFF7E5FDA0EB09008045E6D2002350
:100FC00020223B6387F83C3087F83D200320BDE8B2
:100FD000F883626935EA020314BF0120002000286B
:100FE000DED1BDE8F88300226FF48066042520215D
:100FF0002368012043F40073236066613D6487F831
:101000003C203A6387F83D10BDE8F8832DE9F041B4
:10101000804617461D46C1F307468CB2D8F800102B
:1010200009E0886934EA00030CBF01200020B842BF
:101030000BD16B1C0CD1012EF3D14B6934EA0303A5
:101040000CBF01200020B842F3D00020BDE8F081A1
:101050002DB1FFF795FD069BC01A8542DED2002315
:101060002022C8F8303088F83C3088F83D20032032
:1010700088F83E30BDE8F081F8B504460E461746C4
:101080002068436913F0040323D145696A050CD530
:101090006FF48065042120224561216401202363CF
:1010A00084F83C3084F83D20F8BD731CE9D026B1AB
:1010B000FFF766FDC01B8642E2D220210022236C8E
:1010C00084F83C200B4323640320226384F83D1002
:1010D000F8BD0020F8BD00BF70B505460C461646A9
:1010E00008E05169C90617D45CB1FFF749FD801BC0
:1010F000844206D32A68536913F04003F1D00020DC
:1011000070BD202200212B6C85F83C1013432B640A
:10111000032085F83D2070BD6FF010002021506144
:101120002B6401202B6385F83C3085F83D1070BDA1
:10113000F8B504460E4617462068436913F080034D
:1011400023D145696A050CD56FF4806504212022FE
:10115000456121640120236384F83C3084F83D20FC
:10116000F8BD731CE9D026B1FFF70AFDC01B86420B
:10117000E2D220210022236C84F83C200B4323641C
:101180000320226384F83D10F8BD0020F8BD00BFA5
:101190002DE9F047056884B02C680D9E44F48074F6
:1011A000884691469A462C600C9B009600224FF090
:1011B00001110746FFF72AFF18B1032004B0BDE86C
:1011C000F0873A6808F0FE0313611D4933460C9A14
:1011D0003846FFF7D3FE20B13B6C042BEDD1012044
:1011E000ECE73B6803905969324603919B690C997F
:1011F00003933846039BFFF79BFF88B9BAF1010FB1
:1012000018D039684FEA19230B6132460C993846D9
:10121000FFF78EFF20B93A685FFA89F31361CDE7D3
:101220003B6C042BC9D13A680120136843F4007366
:101230001360C3E73B685FFA89F21A61BEE700BF3B
:10124000020001002DE9F047046884B025680D9E76
:1012500045F4806525602568884645F4807591468B
:101260009A4625600C9B009600224FF0011107461C
:10127000FFF7CCFE18B1032004B0BDE8F0873B684F
:101280005FFA88F808F0FE021A612E4933460C9A7C
:101290003846FFF773FE20B13B6C042BEBD10120E5
:1012A000EAE73B6803905969324603919B690C99C0
:1012B00003933846039BFFF73BFF60B9BAF1010F78
:1012C0003B6812D15FFA89F21A6132460C993846AE
:1012D000FFF72EFFC0B13B6C042BCCD13A68012044
:1012E000136843F400731360C6E74FEA19221A61CA
:1012F0000C9932463846FFF71BFF0028EBD13A68BD
:101300005FFA89F31361E0E73C68024621680C9BB1
:1013100041F48071216038464FF001110096FFF7CB
:1013200075FE0028A7D13A6848F00108C2F810807D
:1013300033460C9A03493846FFF720FE0028ABD10C
:101340009AE700BF0200010000287ED0F8B590F8AF
:101350003D30044603F0FF02002B61D024232268B5
:1013600084F83D30136823F00103136001F068FA3C
:101370006368374A934230D8364A90424ED95A0071
:10138000431EB3FBF2F30133C3F30B03042B38BF4B
:101390000423314AA2FB00202268800C411C5060CB
:1013A000116200214FF0200EE069E768266A256986
:1013B00006433D436069A769D36138431660956071
:1013C000D0601368084643F001031360216484F879
:1013D0003DE0216384F83E10F8BD204A90421DD9BB
:1013E0004FF496711C4D1E4AA5FB0065AD0C01FB28
:1013F00005F1A2FB0121A668226889090131556027
:10140000116296B9013803EB4303B0FBF3F30133E8
:10141000C3F30B03BBB143F40043C2E70120F8BDA3
:1014200080F83C200CF07AFC98E703EB830303EB95
:1014300083030138B0FBF3F30133C3F30B0313B1A0
:1014400043F44043ADE70123ABE70120704700BF01
:10145000A08601007F841E0083DE1B43FF083D0041
:10146000D34D62102DE9F047044682B099460E46EE
:101470001746BDF82C80FFF783FB94F83D30202BF6
:1014800003D0022002B0BDE8F08705460090192382
:10149000012242492046FFF7B9FD0028F1D194F816
:1014A0003C30012BEDD00123226884F83C301368D6
:1014B000D90703D4136843F00103136040204FF0B1
:1014C000210E4FF0000A11684B4621F400611160B3
:1014D000334A31460A9E84F83DE084F83E00C4F861
:1014E00040A0A4F82A80E262608D66620C9E01959D
:1014F00000963A4620852046FFF74AFE002839D15B
:10150000238DC3B12A460C992046FFF711FE00280F
:1015100037D1616A20684B1C63620B78268D0361AA
:10152000638D721E013B9BB26385476993B27A0754
:101530002385E6D593B92A460C992046FFF79CFDF2
:10154000F8B920212268136843F40073136084F80B
:101550003D1084F83C0084F83E0093E78B1C6362E6
:101560004A78B31E0261628D9BB2013A92B2238522
:101570006285C6E7236C84F83CA0042B0BD00320C3
:1015800080E7236C042BFAD122680120136843F40E
:101590000073136076E7012074E700BF02001000BB
:1015A0000000FFFF2DE9F047044686B099460D463E
:1015B0001746BDF83C80FFF7E3FA94F83D30202B46
:1015C00004D00225284606B0BDE8F0870646009004
:1015D0001923012295492046FFF718FD0028F0D174
:1015E00094F83C30012BECD00123216884F83C3086
:1015F0000B68D80703D40B6843F001030B604FF06E
:10160000220E40204FF0000A0A684B4622F4006286
:101610000A60874A29460E9D84F83DE084F83E0022
:10162000C4F840A0A4F82A80E262608D6562109D33
:10163000019600953A4620852046FFF703FE0546B1
:1016400038B1236C84F83CA0042B00F0C78003253C
:10165000B8E7238D9BB9236802905A6902929A6970
:101660000292029A1A6842F400721A600023202241
:1016700084F83C3084F83D2084F83E30A2E7012B0A
:10168000226800F0AD80022B00F0BD80116841F4AB
:101690008061116005905169059192690592059AE2
:1016A000644F002BE2D0032B4BD8012B00F0888035
:1016B000022B0096109B4FF000023946204667D05F
:1016C000FFF7A4FC0028C2D121680B6823F48063D3
:1016D0000B6072B62268636A1269591C61621A70E3
:1016E000638D218D013B01399BB200960246218515
:1016F00063853946109B2046FFF788FC0028A6D159
:101700002368616A1A68481C42F400721A601B69F7
:1017100060620B70638D228D013B9BB2013A638541
:10172000228562B62268636A1269591C61621A7066
:10173000628D238D013A013B92B29BB26285238573
:10174000AFE7324610992046FFF7C6FC002841D18A
:101750002268636A1269591C61621A70628D21687D
:10176000013A92B2238D62854A69013B9BB25207CE
:10177000238596D5636A0A69591C61621A70238DA4
:10178000628D013B013A9BB292B22385628588E764
:10179000FFF73CFC00287FF45AAF72B62368616AF9
:1017A0001A68481C42F400721A601B6960620B7070
:1017B000638D228D013B013A9BB222856385B0E7A0
:1017C000324610992046FFF787FC18B92268636AF1
:1017D0001269D1E7236C202B3FF439AF0125F1E6E4
:1017E000136823F48063136072B6236803905A6908
:1017F00003929A690392039A1A6842F400721A607B
:1018000062B6238D4CE7136843F40063136072B62D
:10181000236804905A6904929A690492049A1A6897
:1018200022F480621A6062B6238D39E7020010004C
:101830000000FFFF04000100704700BF704700BFB9
:10184000704700BF704700BF704700BF704700BFC0
:10185000704700BF704700BF704700BF704700BFB0
:1018600038B590F83D300446293B012B4ED990F80D
:101870003D30602B036805D05A6815055CBF2022F7
:1018800080F83D200022226384F83E201A6822F46A
:1018900000621A605A6812F4006214D0616B5A68D0
:1018A00091F8210022F4006201285A6035D03A4BA9
:1018B00008464B63FFF7FAF9002860D194F83D30F1
:1018C000282B13D038BD94F83D10602942D05A69B6
:1018D000520604D5626A1B69511C6162137020466E
:1018E000FFF7BAFF94F83D30282BEBD1236C5B0750
:1018F000E8D50023202229492046E162236384F8A9
:101900003D2084F83E30FFF7A1FF38BD0023282298
:101910000363036880F83D20B8E7A36B1E4A1846AE
:101920005A63FFF7C3F90028C8D023685A695006E4
:1019300005D5626A1B69511C6162137023682021FE
:101940001A68A06B22F001021A60436B84F83D1004
:101950009847B3E7202184F83D1022645A69510664
:1019600005D5626A1B69511C6162137023681A688D
:10197000204622F001021A60FFF770FF9EE7202543
:101980002268606B1368416B23F00103136084F8D5
:101990003D50884792E700BF712100080000FFFF1B
:1019A000F0B5044603688DB09D695969586894F88C
:1019B0003E20D2B2102A00F08F80402A00F08C80A6
:1019C0008E4A0A401AB3820500F102828C4A2A40EC
:1019D000002A00F0F9808B4A0A40002A40F0B381C7
:1019E000894A0A40002A00F0D480860540F1D1805F
:1019F000628D92B2002A00F0CC80626A511C616252
:101A000012781A61638D013B9BB26385C1E07F4F01
:101A10000F40002FDAD08605D8D594F83D105868CD
:101A20001E4620F4E06058600B925A69C9B20B92CE
:101A30001A6842F001021A600B9A1A6822F4806256
:101A40001A605A6810050ED594F83D20222A00F03D
:101A50004E8294F83D202A2A00F04982626B126877
:101A6000526892B26285628D92B2E2B15A695207AF
:101A700009D5626A1B69501C60621370638D266809
:101A8000013B9BB2638573695B0608D5636A326963
:101A9000581C60621A70638D013B9BB26385236C96
:101AA00043F004032364236C002B40F03382A1F144
:101AB0002802022A40F2E681236B222B01D0222940
:101AC00067D1002320222363204684F83D2084F838
:101AD0003E30FFF7B7FE5CE011F0011F43D08605F2
:101AE00000F15F814A4A0A40002A54D0444A2A4001
:101AF000002A44D0434A0A40002A00F08D8047055E
:101B000040F18A80404A0A40002A40F0898094F8D7
:101B10003D20258D94F83E10D2B2C9B2E06A002D66
:101B200040F00282212A00F04882402931D1222A45
:101B30002FD1628D92B2002A00F02D8294F83E20BF
:101B4000402A7FF45AAF226D002A40F0B182E26C45
:101B5000012AA26C00F0F982C2F307221A61236DF8
:101B60000133236515E02A4A0A40A2B18205BDD59A
:101B7000626CD2B21A61224A2A40002ABAD1254A9E
:101B80000A40002A78D1204A0A4012B1810500F1AA
:101B900039810DB0F0BD194A0A40002AA6D0870548
:101BA000A4D594F83E20E76AD4F830E094F83D607C
:101BB000D2B2222E00F07E8100220A925A690A9245
:101BC0009A690A920A9A91E7124A0A40002A40F05A
:101BD0008B800D4A0A40002ADBD08205D9D5628D60
:101BE00092B2002AD5D0626A1B69511C61621370DF
:101BF000638D013B9BB26385CBE700BF0200010010
:101C00000400100080000100040001001000010029
:101C10000800010040000100A44A0A40002AB8D090
:101C20008605B6D5E16A94F83D20212AB1D1628DAE
:101C300092B2002A7FF4E1AE042905D0082903D02E
:101C400011F5803F40F0AC81002120205A6822F439
:101C5000E0625A601A6842F400721A60216384F8E4
:101C60003D0094F83E302046402B84F83E1000F0B2
:101C7000C181FFF7E1FD8CE7450584D58B4A0A4019
:101C8000002A83D194F83D20222A82D1628D92B21B
:101C9000032AA8D8023A012AE26A40F2718120257B
:101CA0000021022A1A68606A14BF22F4806242F49A
:101CB00080621A605A6822F4E0625A601B69421C12
:101CC00062620370638D013B9BB2638584F83D5073
:101CD000216394F83E302046402B84F83E1000F0FB
:101CE0004C81FFF7ABFD54E745057FF572AF6F4AB6
:101CF0000A40002A7FF471AF94F83D10628DC9B29A
:101D000092B2002A3FF445AF626A1B69501C6062C0
:101D10001370638D013B9BB26385638D9BB2002B77
:101D20007FF437AF2A297FF434AF22252821226897
:101D30002046536823F480635360256384F83D1084
:101D4000FFF780FD25E747057FF54AAE574A0A4071
:101D5000002A7FF44AAE94F83D10628DC9B292B267
:101D6000002A3FF416AF626A501C606212781A6152
:101D7000628D013A92B26285628D92B2002A7FF43E
:101D800008AF29297FF405AF212528215A6820466C
:101D900022F480625A60256384F83D10FFF750FDFD
:101DA000F7E694F83E20402A64D02269B2F5804FCD
:101DB0001CD0226D002A71D0226D012A7FF496AECC
:101DC000626CD21102F0060242F0F1021A618DE655
:101DD00099699B6981F004011F06C1F3800154BF1A
:101DE000A289228B2046FFF72FFDD2E694F83D20F2
:101DF000212A626C16BF42F0010202F0FE02D2B24A
:101E00001A6173E6E16A628D92B2032A75D0628D1F
:101E100092B2022A7FF4E7AE042900F089800829F3
:101E200000F0868011F5803F00F082801A68022958
:101E300014BF22F4806242F480621A605A6822F46D
:101E400040725A602020626A1B69551C65621370DB
:101E5000638D2268013B9BB26385636A12695D1CD6
:101E600065621A70638D0021013B9BB2638584F823
:101E70003D002DE7226D002A50D1626C02F0FE0277
:101E80001A6133E620220A492046E162236384F87E
:101E90003D2084F83E30FFF7D9FC7AE6626CD2111F
:101EA00002F0060242F0F0021A611FE6040001008F
:101EB0000000FFFF266D16B9402A00F0B980266D9C
:101EC00026B92269B2F5404F00F0B980628D92B216
:101ED000002A36D102925A6902929A690292029AB3
:101EE0001A6842F400721A6000222265FEE5A26BB5
:101EF0001268526892B26285B5E5042905D00829B6
:101F000003D011F5803F7FF46EAE1A6822F4806230
:101F10001A6068E62046FFF7A3FC3AE6626C42F0DE
:101F20000102D2B21A61E1E5212A7FF4FEAD00E69A
:101F30005A6822F440725A601A6842F400721A60B9
:101F400080E7628D92B2012A57D0628D92B2022A46
:101F500000F083801A6842F480621A605A681205A1
:101F600003D55A6842F480525A60002209925A6995
:101F700009929A690992099AB6E7FFF76BFC08E69D
:101F8000022A1A6800F0D28022F480621A601A686D
:101F900042F400621A605A6822F480625A60F8E5DE
:101FA000112620255968204621F4E06159602663F6
:101FB00084F83E2084F83D505BE6042805D00828CC
:101FC00003D010F5803F40F0848000222020596823
:101FD00021F4E0615960196841F4007119602263CD
:101FE00084F83D0094F83E302046402B84F83E2093
:101FF0007FF43FAEFFF72CFCCBE517F5803F77D0A1
:10200000042F45D0082F43D0BEF1120F40D0E26A12
:10201000022A1A6814BF22F4806242F480621A60B5
:10202000002205925A6905929A690592059A5BE722
:1020300000965A6900929A690092009A56E50196B4
:102040005A6901929A690192019A1A6842F480725F
:102050001A60226D0132226548E5E26A0026022AF2
:102060001A6859D042F400621A6007965A690792BA
:102070009A690792079A1A6822F480621A605A686D
:1020800016057FF531AF5A6842F480525A602BE74B
:1020900000261A6822F480621A6006965A6906922F
:1020A0009A690692069A1A6842F400721A601BE74F
:1020B000226D012A4FD0226D022A7FF46AAD94F876
:1020C0003D20222A4ED094F83D20212A7FF461AD94
:1020D00093E4112620215A68204622F4E0625A60D7
:1020E000266384F83E5084F83D10FFF7A5FB50E5C9
:1020F0001A6822F480621A605A6812F4006219D0D9
:1021000000261A6822F480621A6003965A690392C4
:102110009A690392039AE7E642F480621A6008968D
:102120005A6908929A690892089AA8E742F480626C
:102130001A6030E704925A6904929A690492049AE8
:102140001A6842F400721A60CEE6D2B21A61236DA8
:10215000023323651DE5A26CD2B21A61236D0133EF
:10216000236516E51A6842F480721A6011E500BF13
:1021700038B50023406A0268456B1168846B21F40E
:1021800080611160438590F83D106B6360294FF0CA
:102190002001636380F83D1080F83E3006D013685C
:1021A00023F001031360FFF757FB38BD0364136886
:1021B00023F001031360FFF751FB38BD002867D0FF
:1021C000F0B590F8293487B0054603F0FF02002BE4
:1021D00059D003232E4685F82934286801F068FC7D
:1021E00056F810EB6C4637460FCF0FC43B682F1DD7
:1021F000236097E80E00704601F052FC0021286829
:1022000001F060FC00212B4608462A46012482F892
:102210002810918601310F2982F8294082F82B007D
:102220009063D063106402F12002F0D100221446C2
:1022300083F828229A8601320F2A83F8294283F8EC
:102240002B42C3F83842C3F83C42C3F8404203F182
:102250002003EDD1EE460FCED5F800C0AEE80F005A
:1022600033686046CEF8003097E80E0001F02CFC91
:10227000012385F82440286885F8293401F03EFCC4
:10228000002007B0F0BD80F828240BF04BFEA0E73B
:10229000012070470122014B1A60704720000E4256
:1022A0002DE9F041036882B0DD07044630D5AD4921
:1022B0004A6802F00C02042A00F0FA804A6802F030
:1022C0000C02082A00F0F0806368B3F5803F00F04C
:1022D0007481002B00F00481B3F5A02F00F0A981D8
:1022E000A04B1A6822F480321A601A6822F4802205
:1022F0001A60FEF745FC9B4D064605E0FEF740FCE4
:10230000801B642800F217812B689A03F6D5236896
:102310009F0728D5934A516811F00C0F00F0A9804F
:10232000516801F00C01082900F09F802369002BFF
:1023300000F0328101228C4B8A4D1A60FEF720FC9E
:10234000064605E0FEF71CFC801B022800F2F38025
:102350002B689807F6D52B68626923F0F80343EAE7
:10236000C2032B6023681A075DD45D073AD57D4B05
:10237000DA69D00000F1A6800125DA6942F08052C6
:10238000DA61DB6903F080530093009B774B1A6896
:10239000D10540F1BF80E368012B00F01481002BD0
:1023A00000F0CD80052B6F4B1A6A00F04F8122F0B0
:1023B00001021A621A6A22F004021A62FEF7E0FBB6
:1023C000684E804641F2883706E0FEF7D9FBA0EB65
:1023D0000800B84200F2AF80336A9B07F5D5002DA4
:1023E00040F0F780E369D3B15E4D6A6802F00C02F9
:1023F000082A45D0022B4FF000025D4B00F0EF8021
:102400001A60FEF7BDFB2C46054605E0FEF7B8FB5B
:10241000401B022800F28F8023689B01F6D4002025
:1024200002B0BDE8F081A369002B2DD00122514BF1
:102430004C4D1A60FEF7A4FB064604E0FEF7A0FB35
:10244000801B022877D86B6A9B07F7D54A4B4B4A0B
:102450001B68A2FB03235B0A019300BF019B5A1E6A
:102460000192002BF9D123687FE75268D6033FF52C
:102470005DAF3C4A1268950726D52269012A23D010
:10248000012002B0BDE8F0813A4A364D1360FEF7F4
:1024900077FB064604E0FEF773FB801B02284AD850
:1024A0006B6A9F07F7D4DEE74A68D0037FF50CAF6D
:1024B0002C4A126891037FF52BAF6268002A7FF4E3
:1024C00027AFDDE7002561E7264960690A6822F049
:1024D000F80242EAC0020A601A077FF546AFA2E797
:1024E00003F1804303F504331A681D4622F4803259
:1024F0001A601A6822F480221A60FEF741FB064631
:1025000004E0FEF73DFB801B642814D82B689B0376
:10251000F7D4FCE61A681E4642F480721A60FEF791
:102520002FFB07463368DA053FF535AFFEF728FB8A
:10253000C01B6428F6D9032002B0BDE8F08103F186
:10254000804303F504331A6A1E4622F001021A6220
:102550001A6A41F2883822F004021A62FEF710FB70
:10256000074612E0001002400000424200700040A6
:10257000600042428004424210000020D34D6210AD
:10258000FEF7FEFAC01B4045D5D8336A9807F7D44A
:10259000002D3FF427AF1CE0344A354D1360FEF7A1
:1025A000EFFA064604E0FEF7EBFA801B0228C2D8D9
:1025B0002B689907F7D42368D5E62D4A136843F4AE
:1025C0008033136095E62A4A136A43F001031362CD
:1025D000F4E6274AD36923F08053D36102E71A60F7
:1025E000FEF7CEFA064604E0FEF7CAFA801B022880
:1025F000A1D82B689901F7D4226AB2F5803F2DD07B
:1026000001251B4B606A5968024321F47411194873
:102610000A435A6005601C46FEF7B2FA054604E01C
:10262000FEF7AEFA401B022885D823689A01F7D539
:10263000F5E603F18043A3F53C331A6842F48022A7
:102640001A601A6842F480321A6052E642F00402BC
:102650001A621A6A42F001021A62AFE66B68A16858
:1026600023F400330B436B60CAE700BF0000424213
:10267000001002406000424270B50126022586B07B
:10268000154B0DF1180E0FCB0EE90F00134C8DF802
:1026900004608DF80550636803F00C02082A0BD122
:1026A000C3F383427244DB0312F8102C07D40C48A6
:1026B00000FB02F006B070BD0A4806B070BD63684A
:1026C0000848C3F3404300FB02F0734413F8143C82
:1026D000B0FBF3F006B070BD3818010800100240DE
:1026E00000093D0000127A004E4A136803F0070308
:1026F0008B420BD2136823F007030B43136013685C
:1027000003F00703994201D00120704703682DE9C7
:10271000F0419A0706D5444C8568626822F0F002C1
:102720002A436260DF0706460C4622D542683E4BCC
:10273000012A1B6872D0022A6AD0990729D53A4D1E
:1027400041F288386B6823F0030313436B60FEF794
:1027500017FA73680746012B49D0022B05D151E0C7
:10276000FEF70EFAC01B404555D86B6813F00C0FEE
:10277000F6D12C4A136803F007039C420CD213686D
:1027800023F0070323431360136803F007039C42FD
:1027900002D00120BDE8F08133685A0706D52249EE
:1027A000F0684A6822F4E06202434A601B0707D5DA
:1027B0001D4A3169536823F4605343EAC1035360EF
:1027C000FFF75AFF184B19495B68194AC3F3031303
:1027D000CB5C20FA03F300201360FEF791F9002090
:1027E000BDE8F081FEF7CCF9C01B404513D86B68FB
:1027F00003F00C03042BF5D1BBE7FEF7C1F9C01BB6
:10280000404508D86B6803F00C03082BF5D1B0E7FE
:10281000980194D4BDE70320BDE8F0819D038ED4D8
:10282000B7E700BF0020024000100240581801081E
:1028300010000020014B1868704700BF10000020F6
:10284000044B05495B68054AC3F30223CB5C10685F
:10285000D84070470010024068180108100000209E
:10286000044B05495B68054AC3F3C223CB5C10687F
:10287000D84070470010024068180108100000207E
:102880002DE9F0410446006882B0C30727D53B4BD1
:10289000DA69D7003BD53A4B00251A68D60544D5EE
:1028A000364A136A13F440730FD0616801F4407024
:1028B00083420BD001270026136A324923F440706B
:1028C0000F600E60D907106246D461682B4A136A04
:1028D00023F440730B431362002D38D12068830723
:1028E0000DD410F0100007D00020244AE16853688E
:1028F00023F480030B43536002B0BDE8F0811F4A0C
:10290000A168536823F440430B435360E9E7DA6955
:10291000012542F08052DA61DB6903F080530193B4
:10292000019B174B1A68D605BAD41A681E4642F4A2
:1029300080721A60FEF724F907463368D805AFD4D1
:10294000FEF71EF9C01B6428F7D90320D4E7D3692A
:1029500023F08053D361C1E71646FEF711F941F227
:102960008837804605E0FEF70BF9A0EB0800B84277
:10297000EBD8336A9A07F6D5A7E700BF00100240EC
:10298000007000404004424230B504460225012256
:1029900087B0354B8DF80550022C06AD8DF804201C
:1029A0000FCB05E90F0042D0102C1CD0012C02D017
:1029B000002007B030BD40F202322C490B6A1A40A9
:1029C000B2F5817F3FD003F44073B3F5007F42D06E
:1029D000B3F5407FECD10B684FF2244013F4003F75
:1029E00008BF0020E5E7214B5968186810F0807097
:1029F000DFD006A8C1F38342024412F8100CCA03C8
:102A000025D55B6806A9C3F340430B44184A13F865
:102A1000143CB2FBF3F300FB03F0144B5B685B0266
:102A2000C7D4144B4000A3FB00304008C1E7FFF7B8
:102A300017FF0E4B5B68C3F3813301335B00B0FBC0
:102A4000F3F007B030BD4FF4004007B030BD0A4B83
:102A500003FB00F0E1E74B6A49F6404013F0020F38
:102A600008BF0020A5E700BF481801080010024079
:102A700000127A00ABAAAAAA00093D00022930B4CC
:102A800000F5FA6420D9224B01EB4100C1EBC001F3
:102A9000A3FB01311F4D0232A5FB0435131903EBD3
:102AA000510303EB940303EBD5131B48A3EB55131E
:102AB000A0FB032030BC1A1A00EB52008008C0EBC8
:102AC000C000181AC0B27047114B01EB4105C1EBB1
:102AD000C501A3FB01310F4D00F2CF70A5FB0035FE
:102AE0000432131903EB510101EB900101EBD511F5
:102AF0000948A1EB5511A0FB013030BC0B1A00EBCB
:102B000053008008C0EBC000081AC0B2704700BF75
:102B1000398EE3381F85EB512549922438B5044698
:102B2000FEF72EF8054605E0FEF72AF8401BB0F543
:102B30007A7F09D823685A689206F5D55A6800202A
:102B400042F010025A6038BD032038BD026838B523
:102B50005368044623F010035360FEF711F805464E
:102B600005E0FEF70DF8401BB0F57A7F05D8236825
:102B70005B689B06F5D5002038BD032038BD00BF3B
:102B800038B50C460546FFF7C9FF08B1012038BD2E
:102B90002B68220CA4B29A612846DC61FFF7D6FFAD
:102BA000003018BF012038BD38B50C460546FFF788
:102BB000B5FF08B1012038BD2B68220CA4B21A62FF
:102BC00028465C62FFF7C2FF003018BF012038BD05
:102BD000F8B500286DD000296BD0037C012B34D0D0
:102BE0000124022304744374002A31D14FF461623A
:102BF0004B780C78C3EB03139B0002FB04338C78F7
:102C000006461C442146FFF7BBFF0546002849D174
:102C100033685A6822F005025A601A6A596A89B202
:102C200041EA02414B1C0AD08C4208D901F5A83177
:102C300001F5C0713046FFF7B7FF00283CD10122F3
:102C40000023727433742846F8BD02252846F8BD67
:102C50004FF461664A780D78130903EB830402F0A0
:102C60000F0303EB44032C0904EB8407DBB205F0EC
:102C70000F048A78C3EB031304EB4704E4B29B0010
:102C800006FB0433140904EB840102F00F0404EB87
:102C90004104E4B21C4421460646FFF771FF054695
:102CA0000028B5D00422002301257274337428460D
:102CB000F8BD01252846F8BD042335747374012539
:102CC000C4E700BF002800F0C380002900F0C080E6
:102CD000D0F800C0DCF804305B0700F1B9802DE9C2
:102CE000F04FDCF81840DCF81C70DCF81830A6B2A5
:102CF0009DB2AE4283B000F00081DCF81C70BFB220
:102D000047EA03470C464FF46161914B0546A3FB2C
:102D10000703DB0A01FB137116468E4A172BA2FB31
:102D200001024FEA5212C2EB0210A1EB8001627065
:102D3000A17040F28F80884AA2FB0312120902EBB5
:102D40004202A3EBC2032370DCF82020DCF824301D
:102D50009BB243EA0243581C7ED09F427CD27F4AFA
:102D60007F49A2FB07294FEA194901FB1979284637
:102D70004946A3EB0708FFF703FF002878D1B8F115
:102D8000FF3F00F0C08009EB08012846FFF70CFF69
:102D900000286DD1714A6B7BA2FB072EAF7B5FEAE7
:102DA0001E4E19463A46E87B1AD000224FF4C87BE3
:102DB0004FF4B56C012B5FD00A2B62D90C2B64D178
:102DC0001E2F5BD90132964500F1010040F2A6802A
:102DD00002270123511C8E450A46EBD8D9B2FAB21C
:102DE000E8736973AA73FFF749FE287366B3237803
:102DF000092B40F2868000220A3BDBB2092B02F14C
:102E00000102F9D81201D1B262780B43092A23706A
:102E100040F2828000230A3AD2B2092A03F1010368
:102E2000F9D81B01D9B2A3780A43092B62704FF07D
:102E3000000207D90A3BDBB2092B02F10102F9D8E3
:102E40001201D2B21343A370002003B0BDE8F08F8B
:102E5000012070472370C9E7404B4149A3FB07237A
:102E60001B0C01FB13712846FFF78AFE00284AD08D
:102E7000012003B0BDE8F08F1E2F3AD80137511C56
:102E8000A9E72CFA03F1C907F6D423F002010429BB
:102E90002DD009292BD04FF0640A32491FFA80F94E
:102EA000A1FB09814FEA5118C9090BFB11910AFBDB
:102EB000189889B202F1010A022B01911FFA88F8D1
:102EC000514688D109F0030306E0F24507F10107F6
:102ED0000AD252460AF1010A1B2FF6D91C2F20D024
:102EE0001D2F27D0D645F4D8FAB2022178E71D2F3E
:102EF000C4D90133511C01276DE7BFB247EA04472B
:102F000000E7002180E74FF0FF312846FFF74CFE35
:102F100000283FF43FAFABE7002184E701221146D0
:102F20005EE73BB9B8F1000F01D1019B13B9D6455B
:102F30000AD952460132964503D9511C0227032370
:102F400049E7012203214BE71D22022148E700BF88
:102F5000C5B3A29189888888ABAAAAAA07452EC2C0
:102F6000805101001F85EB5100284DD000294BD026
:102F7000037C012B27D070B5022301244374047411
:102F80001ABBCB78C3734E7846738A788273044633
:102F90000D4618463146FFF771FD207328702168F1
:102FA0008D69CA698869AEB283B29E4254D0CB693A
:102FB0009BB243EA00432D4A934227D801230020C5
:102FC0006374207470BD02207047CA78130903EB44
:102FD000830402F00F0303EB4403DBB2C3734A78AC
:102FE000160906EB860402F00F0606EB4406F6B25D
:102FF00046738C78220902EB820504F00F0202EB83
:103000004502D2B28273C2E701207047184DA2F682
:103010000F62A5FB03152D0C02FB15352046294632
:10302000FFF7AEFD0646D8B923681A6A596A89B215
:1030300041EA02414B1CC1D08D42BFD901F5A831F4
:1030400001F5C0712046FFF7AFFD0028B6D004237C
:1030500026746374012070BD93B243EA0543AAE766
:103060000422002362742374012070BD8F5F01006D
:1030700007452EC200232DE9F04182B0ADF804309F
:103080008DF80630002841D000293FD090460E46EA
:103090001A4601A90746FFF715FE002836D13B7BEB
:1030A0003370FD7BF5707C7B7470BB7BB370B8F1C3
:1030B000000F2CD0092D024607D90A3DEDB2092D8B
:1030C00002F10102F9D81201D2B21543092CF570B0
:1030D0004FF0000207D90A3CE4B2092C02F10102C8
:1030E000F9D81201D2B21443092B74704FF00002C8
:1030F00007D90A3BDBB2092B02F10102F9D8120110
:10310000D2B21343B37002B0BDE8F081012002B027
:10311000BDE8F081C0B1026838B55368044623F0B9
:1031200008035360FDF72CFD054605E0FDF728FD7B
:10313000401BB0F57A7F05D823685B681B07F5D57F
:10314000002038BD032038BD0120704700284DD035
:1031500038B5437C044603F0FF02002B3AD002232B
:1031600020466374FFF7D6FF18B10423012063746F
:1031700038BD2046FFF7D2FC0028F6D12268A068AF
:10318000516821F00701516020B119490B6B23F000
:1031900001030B631649CB6A23F460730343CB62CC
:1031A00061684B1C1AD090688DB220F00F0040EA85
:1031B00011409060D36820461B0C1B042B43D36046
:1031C000FFF7C4FC0028D0D10123E0736373A3731D
:1031D000637438BD02740AF0CDFDC0E70120FFF72B
:1031E000D3FB0028C1D02268411EDCE701207047D4
:1031F000006C0040704700BF704700BF0268116854
:10320000CB0710D55168C9070DD5536810B55B07BA
:10321000044609D4FFF7EEFF012262746FF0010249
:1032200023685A6010BD7047FFF7E6FF04226FF075
:1032300004012368596062746FF001025A6010BD86
:10324000890001F1804101F5D84192B20A607047CE
:10325000890001F1804101F5D841086880B27047CA
:10326000704700BF03680020DA6842F00102DA60AC
:103270001A6842F001021A60704700BF704700BF31
:10328000704700BF704700BF704700BF036810B5AC
:103290001A690446910702D5DA68920762D41A695E
:1032A000500702D5DA68510749D41A69120702D5C6
:1032B000DA68100731D41A69D20602D5DA68D00666
:1032C00018D41A69D10702D5DA68D2076BD41A6903
:1032D000100602D5DA6811066DD41A69520602D5B5
:1032E000DA68500657D41A69910602D5DA68920650
:1032F00049D410BD6FF0100108221961DB69204626
:1033000013F4407F227761D1FFF7B8FF2046FFF723
:10331000B9FF002223682277D3E76FF00801042267
:103320001961DB6920469907227755D1FFF7A6FF7F
:103330002046FFF7A7FF002223682277BBE76FF044
:103340000401022219619B69204613F4407F227711
:103350003FD1FFF793FF2046FFF794FF0022236839
:103360002277A2E76FF00201012219619B690277BF
:103370009B0728D1FFF782FF2046FFF783FF00223B
:10338000236822778BE76FF020022046BDE81040CB
:103390001A6100F0A3B86FF0400220461A61FFF7EF
:1033A00073FF23689FE76FF0010220461A6101F066
:1033B000E3FA23688BE76FF0800220461A6100F081
:1033C0008FF8236889E7FFF75BFFD8E7FFF758FF1F
:1033D0009FE7FFF755FFC1E7FFF752FFABE700BFDD
:1033E0001D4A0368904221D0B0F1804F30B414D010
:1033F000A2F59432904210D002F5806290420CD037
:103400004D6923F080032B438C680A680360012315
:10341000C462826230BC436170474A6823F0700323
:103420001343CA6823F440731343E9E74A6823F05F
:1034300070031343CA6823F4407313434A6923F0AB
:103440008003134303608B68C3620B6883620B695C
:103450000363012343617047002C0140B8B190F829
:103460003D3010B503F0FF0204465BB10223206833
:1034700084F83D30211DFFF7B3FF0123002084F8BD
:103480003D3010BD80F83C20FFF7EAFEEEE701205A
:10349000704700BF00B390F83D3070B503F0FF02F5
:1034A00004460D469BB10223012684F83D30206876
:1034B000211DFFF795FF236800201A6822F00802FB
:1034C0001A601A682A431A6084F83D6070BD80F85B
:1034D0003C200AF075FCE6E701207047704700BF0A
:1034E000704700BF2DE9F04782460468C168226931
:1034F000836822F440520A432261E2680069DAF8E4
:10350000141022F4B052034322F00C020B43134375
:10351000E3606369DAF81810514A23F440730B43EF
:103520009442636159D0FFF78BF9DAF8043000EB6D
:10353000800000EB80009B00B0FBF3F3494F4FF09D
:103540006408A7FB03235B091D01FFF779F9DAF88B
:10355000042000EB8000930000EB8000B0FBF3F64A
:10356000FFF76EF9DAF8042000EB8000930000EB1F
:103570008000B0FBF3F3A7FB03235B0908FB136395
:103580001B013233A7FB03235B0903F0F006FFF7AF
:1035900057F9DAF8042000EB800000EB800093007C
:1035A000B0FBF3F9FFF74CF9DAF8043000EB8000D8
:1035B00000EB80009B00B0FBF3F3A7FB03235B0948
:1035C00008FB13931B013233A7FB0323C3F34313FD
:1035D00033432B44A360BDE8F087FFF741F9DAF8E5
:1035E000043000EB800000EB80009B00B0FBF3F3A5
:1035F0001C4F4FF06408A7FB03235B091D01FFF775
:103600002FF9DAF8042000EB8000930000EB800033
:10361000B0FBF3F6FFF724F9DAF8042000EB8000A2
:10362000930000EB8000B0FBF3F3A7FB03235B09DF
:1036300008FB13631B013233A7FB03235B0903F071
:10364000F006FFF70DF9DAF8042000EB8000930094
:1036500000EB8000B0FBF3F9FFF702F9A4E700BF2D
:10366000003801401F85EB512DE9F04107460E4619
:1036700090461D463C6801E06B1C06D1206836EA86
:103680000003F9D10020BDE8F08135B1FDF778FAEB
:10369000A0EB08008542EDD23C6820220021E368BF
:1036A000032023F4D073E360636923F001036361B3
:1036B00087F8392087F8381087F83A20BDE8F0817C
:1036C00060B338B590F83930044603F0FF0203B315
:1036D0002423226884F83930D368204623F4005329
:1036E000D360FFF7FFFE00252021236828461A69D2
:1036F00022F490421A615A6922F02A025A61DA6869
:1037000042F40052DA60E56384F8391084F83A1024
:1037100038BD80F838200AF0A3FBD9E701207047B4
:10372000F0B5044690F8390083B0202802D002207A
:1037300003B0F0BD0D46002939D0002A37D01E460F
:1037400094F83830012BF2D0002001212123E063CE
:1037500084F8381084F839300192FDF711FA0746E1
:10376000019AA284E284E38C9BB2BBB1E38CA26891
:10377000013B9BB2B2F5805FE3843A4633464FF09B
:103780008001204615D0FFF76FFF70B923682A78B3
:1037900001355A60E38C9BB2002BE7D133463A46A1
:1037A00040212046FFF760FF90B10320C0E70120D1
:1037B000BEE7FFF759FF0028F7D12B88216822695F
:1037C000C3F308034B600AB90235CCE70135CAE7F9
:1037D000202384F8380084F83930A9E790F839308C
:1037E000202B01D002207047B9B1B2B190F8383027
:1037F000012BF7D030B4002321240568C284C363B1
:1038000080F83940EC68016244F08004828480F8DA
:1038100038301846EC6030BC70470120704700BF5C
:1038200090F83A30202B01D002207047F9B1F2B164
:1038300090F83830012BF7D030B4002322250468EB
:10384000C285C36380F83A50E568828545F4807587
:1038500080F838308162E5606269184642F0010202
:103860006261E36843F02003E36030BC70470120ED
:10387000704700BF8368B3F5805F2CD0036973B1D4
:103880000368826A5B68511C03F07F0381621370D6
:10389000C38D013B9BB2C38543B1002070470268D2
:1038A000836A5268591C81621A70F1E710B52024AE
:1038B0000268D16821F02001D160D16821F48071C3
:1038C000D160516921F00101516180F83A4000F066
:1038D00023FE002010BD0269836A3AB9026852686B
:1038E000C2F3080223F8022B8362D1E70268526810
:1038F000D2B223F8012B8362CAE700BF704700BF32
:10390000036870B51A6804461607DD6859694AD01D
:1039100011F0010153D0D60705D5E80503D5E06BBA
:1039200040F00100E06356077BD5002900F0858058
:10393000E16B900741F00201E16377D5E16B41F063
:103940000401E163110773D4E16B00292AD09106C9
:1039500005D5AA0603D594F83A20222A7DD05D69C0
:10396000E16B0E0702D415F040057BD02021DA6808
:1039700022F49072DA605A6922F001025A6184F8E6
:103980003A105A6955065FD55A69616B22F04002B8
:103990005A61002958D03C4B08464B63FDF786F925
:1039A000002855D170BD96060CD5A9060AD590F809
:1039B0003A30222BF6D1BDE87040FFF75BBF15F41B
:1039C000907FA8D110060ED45606EBD56D06E9D52A
:1039D0002021DA68204622F04002DA6084F83910AB
:1039E00000F094FD70BD2906EED594F83920212A07
:1039F000D8D1A268B2F5805F226A38D0511C21620A
:103A000012785A60E28C013A92B2E284002AC9D15B
:103A1000DA6822F08002DA60DA6842F04002DA60A6
:103A200070BD96070BD5002988D18DE711078BD57E
:103A3000E16B41F00801E16386E7900784D4100749
:103A400082D5002980D0F3E72046FFF757FF70BDED
:103A5000606BBDE87040436B18472046FFF70AFFD4
:103A600023687CE72046FFF749FFE56370BD1188B6
:103A70002069C1F30801596010B902322262C1E71E
:103A800001322262BEE700BF8D3A0008002208B56D
:103A9000436ADA851846DA84FFF730FF08BD00BFB5
:103AA00084B001A880E80E0004B00020704700BF79
:103AB00044F2FF230246B0F8401000200B40A2F869
:103AC000403070470020704784B070B40446012530
:103AD0000020A4F84050A4F84000A4F84400A4F842
:103AE0005000B4F8405004AEADB245F43F45A4F8E0
:103AF000405086E80E0070BC04B07047002070474C
:103B0000F0B507460D468FB01C4C01AE0FCC0FC66A
:103B1000236801A9337010223846194FFFF75EFE63
:103B200040F6C410FDF732F80FCF3F680DF1040ED8
:103B3000AEE80F0001A9102237702846FFF74EFEAD
:103B40004FF47A706424FDF721F80E4E14342246A7
:103B5000314601A80BF004F801A982B22846FFF70C
:103B60003DFE3220FDF712F8B4F5BE7FEED14FF4E2
:103B70009670FDF70BF80FB0F0BD00BF701801088C
:103B8000841801089818010810B5334CA378032B4A
:103B900043D8DFE803F02435190200224FF4005126
:103BA0002E48FDF7D7F90B222D4B00211846DA607D
:103BB000FFF770FC002842D10023012129482A4A3E
:103BC000A3700370117010BD4FF480712748FDF78A
:103BD000BBF9002838D0A3780133A37010BD0022B0
:103BE00080212348FDF7B6F900224FF400511B480D
:103BF000FDF7B0F90022A378A2800133A37010BDB5
:103C000040F2B533A2889A420ED840211848FDF7F9
:103C1000A5F9A3880133A38010BD0020012211491A
:103C2000114B08701A7010BD012280211048FDF759
:103C300091F90022A378E2800133A37010BD6921BD
:103C40000C4801F0DBF9B7E740210948FDF786F998
:103C5000E3880133E38010BD04020020001001401E
:103C60005C0400200C020020160200200008014025
:103C7000000C0140B41801082DE9F04F044685B04E
:103C8000242003918DE80C00BDF838B09DF83CA0CD
:103C90009DF840909DF844809DF84870BDF84C60B8
:103CA000BDF850500AF01CFA0290D8B103990AF0FE
:103CB0007BFF0020029BBDF8001022685982BDF8EE
:103CC0000410A3F816B0998283F818A083F819900D
:103CD00083F81A80DF769E83DD831A62236005B045
:103CE000BDE8F08FFF2005B0BDE8F08F2DE9F04F63
:103CF00087B006460568084611469DF85420BDF871
:103D000040B00092BDF85820BDF844A00192BDF823
:103D10005C209DF848909DF84C809DF85070029270
:103D200045B110B90BE060B125462C6A0138C0B22C
:103D3000002CF8D170B3FD2007B0BDE8F08F2C4601
:103D400005462420059304910AF0CAF90390E0B1D6
:103D500004990AF029FF039A059BA2F814B0538234
:103D60009DF80030A2F816A0D376BDF8043082F892
:103D700018909383BDF8083082F819809776D38322
:103D8000146225B12A620020D6E7FF20D4E7326012
:103D90002846D1E70446D4E7026892B108B511B9C4
:103DA00011E039B11A46136A0139C9B2002BF8D1B2
:103DB000FD2008BD196A116218460AF099F9002021
:103DC00008BDFD2070471346126A0260F4E700BF89
:103DD00000282AD038B51D46044631B1246A01397D
:103DE000C9B2002CF9D1FD2038BD104621460AF099
:103DF000DBFE638A049A2B80A38A00201380E38A67
:103E0000059A1380237E069A1370637E079A1370B7
:103E1000A37E089A1370E37E099A1370A38B0A9A03
:103E20001380E38B0B9A138038BDFD20704700BFD1
:103E300038B10023006A01339BB20028FAD118463A
:103E400070470346FBE700BF2DE9F04F044689B0F9
:103E500040B139B10B4600E023B1246A013BDBB22B
:103E6000002CF9D14B011E46002204213148059354
:103E7000FDF770F83246002364322F492F480AF0CC
:103E80006FFE2E4F85B2DFF8C8902A46642339466C
:103E90002B48A9F80050FFF743FCB3B2BA460025FF
:103EA0000493DFF8A8B003F16406A0461EE00123E6
:103EB0004FF0FF3201930292A021324600945846FF
:103EC000FDF7D0FA22461F4950460AF049FE1FFA74
:103ED00080FEA9F800E06423724651461848013577
:103EE000FFF71EFC0136122DB6B233D04046FCF768
:103EF000C9FDA84208EB0504D9D801234FF0FF31D2
:103F0000002202918DE80C00A02132465846FDF7B0
:103F1000A9FA12230C4C9E46A9F800300FCC386049
:103F2000B4F800C0A0787960BA60FB60A7F810C050
:103F3000B874D0E7000C0140881901089C050020E6
:103F400044050020AC190108C01901089C04002098
:103F50000E02002001254FF0FF364446B8F812301B
:103F6000049A0DF118084FEA132EDFB202962B4681
:103F70000195CDF800807632A021BC48CDF818E03C
:103F80000797FDF76FFA628AB949BA480AF0E8FD67
:103F90001FFA80FE72466423B649B748A9F800E0CC
:103FA000FFF7BEFB049907AF2B4601F1770202969B
:103FB00001950097A021AD48FDF754FA628AAF49F8
:103FC000AC480AF0CDFD1FFA80FE72466423A94971
:103FD000A948A9F800E0FFF7A3FBA28A2B465FFAE5
:103FE00082FE100A049A069002960195CDF8008090
:103FF0007832A0219D48CDF81CE0FDF733FAA28A63
:104000009F499C480AF0ACFD1FFA80FE724664236B
:1040100098499948A9F800E0FFF782FB04982B46DD
:1040200000F17902029601950097A0218F48FDF7D3
:1040300019FAA28A93498F480AF092FD1FFA80FE6E
:10404000724664238B498C48A9F800E0FFF768FBAF
:10405000E28A0499100A5FFA82FE2B4601F17A0285
:10406000069002960195CDF80080A0217F48CDF8FA
:104070001CE0FDF7F7F9E28A83497E480AF070FDFB
:104080001FFA80FE724664237A497B48A9F800E053
:10409000FFF746FB049A2B460296019500977B3268
:1040A000A0217248FDF7DEF9E28A784971480AF0EA
:1040B00057FD1FFA80FE724664236E496E48A9F8C8
:1040C00000E0FFF72DFB049804F118022B46009244
:1040D000029600F17C020195A0216448FDF7C2F927
:1040E000227E6B4963480AF03BFD1FFA80FE724650
:1040F000642360496048A9F800E0FFF711FB0499C8
:1041000004F119022B460092029601F17D020195FD
:10411000A0215648FDF7A6F9627E5E4955480AF08F
:104120001FFD1FFA80FE7246642352495248A9F8C7
:1041300000E0FFF7F5FA04F11A020092049A2B4608
:10414000029601957E32A0214848FDF78BF9A27EA8
:10415000514948480AF004FD1FFA80FE7246642364
:1041600044494548A9F800E0FFF7DAFA049804F159
:104170001B022B460092029600F17F020195A021BE
:104180003A48FDF76FF9E27E44493A480AF0E8FC04
:104190001FFA80FE7246642336493748A9F800E0CA
:1041A000FFF7BEFAA28B0499100A5FFA82FE2B4633
:1041B00001F18002069002960195CDF80080A021C1
:1041C0002A48CDF81CE0FDF74DF9A28B3449294867
:1041D0000AF0C6FC1FFA80FE724664232549264871
:1041E000A9F800E0FFF79CFA049A2B460296019585
:1041F00000978132A0211D48FDF734F9A28B29498F
:104200001C480AF0ADFC1FFA80FE7246642319496F
:104210001948A9F800E0FFF783FAE28B04984FEA07
:10422000122C5FFA82FE2B4600F18202CDF800804C
:1042300002960195A0210D48CDF818C0CDF81CE0DC
:10424000FDF710F9E28B18490A480AF089FC1FFAB9
:1042500080FE7246642307490748A9F800E0FFF78B
:104260005FFA04982B4600F183021FE09C040020B3
:10427000D41901089C05002044050020F819010804
:104280001C1A0108441A01086C1A0108941A010842
:10429000BC1A0108DC1A0108FC1A0108201B0108DD
:1042A000441B01086C1B0108941B01080296019530
:1042B0000097A0211448FDF7D5F8E28B1349144864
:1042C0000AF04EFC84B22246642311491148A9F831
:1042D0000040FFF725FA059B202284330E490C4845
:1042E0000AF03EFC84B22246642309490948A9F831
:1042F0000040FFF715FA2A4604210848FCF72AFE79
:1043000009B0BDE8F08F00BF9C040020941B010899
:104310009C05002044050020C41B0108000C01403E
:104320002DE9F04F012799B08B4609903A460421B8
:104330003B484FF0FF3AFCF70DFE4FEA4B16DFF813
:10434000F48006F1640410AD8436224601348DE811
:10435000A0040123A0214046A4B2FDF723F9B442F2
:1043600005F10105F1D10DF13F030DF12B020DF126
:10437000510013F8011F834202F8011FF9D10BAA63
:10438000284929480AF0ECFB284D84B222466423D0
:10439000254927482C80FFF7C3F99DF854E09DF884
:1043A00052309DF856009DF85C109DF855409DF8E0
:1043B00053509DF857909DF85D609DF85E209DF8E4
:1043C0005F8044EA0E2445EA032549EA002946EACB
:1043D000012609A8594648EA02280734FFF7DCFC01
:1043E0009DF85BA09DF85AC09DF859E06B1C9DF8A4
:1043F0005850A4B2CDF8049000949BB2CDF81C8024
:1044000006960BAA09A85946CDF814A0CDF810C0FD
:10441000CDF80CE00295FFF769FC19B0BDE8F08F0C
:10442000000C0140E81B01089C0500200E02002042
:10443000440500209C04002001282DE9F04118D0FB
:1044400040282FD0B0F5807F01D0BDE8F0810F2645
:10445000254D264C264F0FCC28606960AA60EB6082
:10446000294632467E806423BDE8F0412148FFF7AB
:1044700057B901462048FCF767FD1D4E10B9337847
:10448000012B29D01D4B1E491A8817480AF068FBDA
:1044900084B2224674806423BDE8F0411249154875
:1044A000FFF73EB901461748FCF74EFD104E10B914
:1044B0003378012B14D00F270B4D134C77800FCC82
:1044C00028606960AA60EB6029463A46BDE8F04181
:1044D00064230848FFF724B9307009F045FBD1E7A1
:1044E000307009F025FAE6E79C050020201C010841
:1044F0000C02002044050020000C01400A020020AC
:10450000F41B010800080140101C01080122014BA6
:104510001A7170470C020020F8B5844A0368934270
:1045200000F0BD80824C834A934259D0824D2B7853
:10453000012B7FD0637D012B0BD001227F49804866
:10454000FFF76EF9BDE8F84001227E497E48FFF78B
:1045500067B96379023B3B2B3FD8DFE813F0B30028
:10456000D800D200D500BE00C900CC00CF00DB00CF
:10457000DE003C00E1003E00E4003E003E003E0064
:104580003E003E003E003E003E003E003E003E003B
:104590003E003E003E003E003E003E003E003E002B
:1045A0003E003E003E003E003E003E003E003E001B
:1045B0003E003E003E003E003E003E003E003E000B
:1045C0003E003E003E003E003E003E003E003E00FB
:1045D0003E003E00070104F0DFFC00236375ACE7FA
:1045E0005A4E337823B95A4A137053709370D3706C
:1045F000544A12780A2A17D0542A97D0A2F15801A7
:10460000012993D9202A00F0BC80217D012900F0E6
:104610007B8102298AD14E4D5F1C29464D48EA54C0
:1046200037700AF0C1FA81E700230122424D237559
:1046300033702A70484809F02BFD484B18804548D4
:1046400009F026FD6379464A023B10803B2B23D8B4
:10465000DFE803F09DA7A2BBB6B1ACD9D4CF1ECA88
:1046600022C5222222222222222222222222222287
:10467000222222222222222222222222222222221A
:10468000222222222222222222222222222222C06C
:1046900003F0DAFE04F0BEFC00232B704AE7054667
:1046A000264809F0F5FC092800F22C81DFE810F01B
:1046B0001D010D01FE00EA00E500DE00D700CA0082
:1046C000BD00B000274D002229462748FEF7FAFA20
:1046D0006978287800F06AFF7FE7224D002229469A
:1046E0002148FEF7EFFA6978287808F0C3FD74E7EF
:1046F00009F01EF971E709F0A9F96EE709F034FA3B
:104700006BE705F0E3F968E707F084FD65E705F07E
:1047100049F962E701F0E4FD5FE703F005F85CE7C3
:1047200004F090FC59E704F007FD56E7003801401B
:104730000C0200200044004058040020F204002035
:1047400044050020F404002018060020590400202D
:104750001006002040050020F8040020F00400208E
:10476000980500201406002084050020724D0022C8
:1047700029467248FEF7A6FA6978287808F0AEFF55
:104780002BE70022237D327001332375CEE601F042
:10479000CDF801F0D3FC7FE705F014FB07F01AFA1F
:1047A0007AE704F063FE05F079F975E709F09AF904
:1047B00009F0CEF970E709F007F909F03BF96BE76A
:1047C00008F042FF08F07AFF66E707F0C1FE08F044
:1047D0003FFA61E709F06AF809F09EF85CE704F037
:1047E000FDFC04F053FD57E704F064FC04F098FC72
:1047F00052E703F011F903F067FB4DE701F040FECB
:1048000002F010FB48E709F0FFF909F033FA43E73B
:104810000C2440F2CF224A4B00211846DC605A603B
:10482000FEF738FE00286DD0FEE7112440F2E73293
:10483000434B00211846DC605A60FEF72BFE00282F
:1048400060D0FEE7132440F2CF223D4B00211846F2
:10485000DC605A60FEF71EFE002853D0FEE7394C9C
:10486000217B2069FFF75CFD2B685CE61021364850
:10487000FCF774FB334C2B6855E60023314CA372D4
:104880002B6850E62F4C31492378E288012B3048C1
:1048900008BF63720AF064F986B2642332462C4979
:1048A0002C486680FEF73CFF2B683CE62A4A2B4BDF
:1048B00012881B889A4230D2224C6379022B32D064
:1048C000002222722B68E2802DE601220221244878
:1048D000FCF740FB012280211B48FCF73BFB6422D4
:1048E000204B184C1A702B681DE6002202211C4830
:1048F000FCF730FB002280211348FCF72BFB114C06
:104900002B6810E62B680DE6174D5F1C29461748EB
:10491000EA5437700AF048F908E60023094C23707E
:1049200009F094F8CCE7012300201149114A0870DE
:1049300023701370C4E700BF140600208405002014
:10494000FC0400200C02002000080140301C01087B
:104950009C05002044050020E60A0020C00A002033
:10496000000C01400800002010060020F804002080
:104970002C020020360200202DE9F041774A03681E
:1049800082B0934204463BD0754A934212D0754A96
:10499000934202D002B0BDE8F081734C2378002B23
:1049A000F8D000F059FB237A002BF3D1E3880133D0
:1049B000E380EFE76C4DAB7A002B58D02B7E13B120
:1049C0002B78002B5FD16B7EABB16A8B182A51D943
:1049D000012B44D1654B1A88193292B21A8064496E
:1049E00064480AF0BDF886B23246642361496248E1
:1049F0006E80FEF795FE00226A7623686A83C6E71A
:104A00005E4E002231465E48FEF75CF9B378564DA3
:104A1000ABB96B79022B00F091800A2B36D0B178BC
:104A2000737832785348009156490AF099F886B263
:104A3000324664234F4950486E80FEF771FEAB7DCD
:104A40003BB10133DBB2032BAB7502D17E224E4B5F
:104A50005A70EB7D0BB10023EB75236894E7022BB2
:104A6000424B1A88BBD1193A92B21A80B7E7FFF7C6
:104A70008BF8A3E740214548FCF770FA6A8B23685E
:104A800001326A8383E700F051FD9CE74FF0180C78
:104A9000384FDFF80CE1A5F802C0BEE80F0038601F
:104AA0007960BEE803009EF800E0BA6087F818E07D
:104AB0006246FB6038617961642339463448FEF709
:104AC0002FFE3278384633490AF04AF81FFA80FE42
:104AD0007246394664232E48A5F802E0FEF720FE10
:104AE0004FF01A0CDFF8BCE0A5F802C0BEE80F00DA
:104AF00038607960BEE80300BEF800809EF802E0EE
:104B0000BA6087F81AE06246FB6038617961642315
:104B10003946A7F818801E48FEF702FE727838461C
:104B20001D490AF01DF81FFA80FE724639466423BB
:104B30001748A5F802E0FEF7F3FD70E773783278C6
:104B400016490C480AF00CF887B264233A46094922
:104B50000F486F80FEF7E4FD6B795EE7002C0140A3
:104B600000080040000400400C0200203E0200202B
:104B7000F81C01089C0500204405002014060020B4
:104B800084050020E41C010808000020000C0140FE
:104B900018060020981C0108CC1C0108441C0108C0
:104BA0007C1C0108B01C010870B54FF48032012351
:104BB0000926002502244FF4E01194B00AA80A96B1
:104BC0000B9212920C950E93109311941391FDF782
:104BD00067FB00B1FEE703464FF480620F252146D4
:104BE00005A807930993069405950892FDF77CFDA7
:104BF000034600B1FEE711214FF4007201A80493AF
:104C000001910292FDF73CFE044600B1FEE7FDF77C
:104C100011FE084BA3FB00308009FCF71DF80420AF
:104C2000FCF732F8224621464FF0FF30FBF7D2FF67
:104C300014B070BDD34D62102DE9F04F93B0FBF767
:104C400081FFFFF7B1FF9C4B002298694FF40051A0
:104C500040F0100098619C69984804F010040A9490
:104C60000A9C9D69012445F020059D619D690226ED
:104C700005F020050B950B9D9D6943F2F22745F049
:104C800004059D619D6905F004050C950C9D9D69C9
:104C900045F008059D619B69894D03F008030D935C
:104CA0000D9BFCF757F9002248F2B0018548FCF74C
:104CB00051F9002240F2F6318348FCF74BF94FF4EA
:104CC00000530EA97D480E930F941196FCF73AF805
:104CD00048F2B0030EA97B480E930F941196FCF78F
:104CE00031F84FF4A0730EA976480E930F951094E7
:104CF000FCF728F80EA974480F950E941094FCF751
:104D000021F840F2F6330EA96F480E930F941196D6
:104D1000FCF718F8002206201146FBF75BFF06207F
:104D2000FBF78EFF002217201146FBF753FF674D5C
:104D30001720FBF785FF664B214628462B60FEF7C0
:104D400087FAB8422ED04FF480734FF0FF322846D6
:104D5000AB606A60FEF7FAF9034600B1FEE722464F
:104D600009A928468DF824408DF825308DF8263085
:104D7000FDF72EFF48BB11204FF0150E16238DF8BE
:104D800039000EA9224628468DF838608DF83AE0A1
:104D90008DF83B30FEF7E8F860BB3A4621462846DE
:104DA000FEF74EFA00234FF416550C24494E4A4A9A
:104DB000304686E82400B360F3603361B361F36189
:104DC0007461FEF77DFC08B1FEE7FEE74FF0080EC8
:104DD00002210322414B424F9861D8611862184664
:104DE000C3F804E01F609960DA60FDF7E7F9034655
:104DF00008B1FEE7FEE73B4F3B4A3846BB60FB602D
:104E00003B61BB61FB617D607C613A60FEF758FCF1
:104E1000034600B1FEE742F20F7040F60F62334DD9
:104E2000334C194668602846AB602B616B612C607F
:104E3000EA60FEF72FFB014600B1FEE740F2E73BD8
:104E40001123DFF8C4902B4AC9F80800C9F81000F4
:104E50004846C9F804B0C9F80020C9F80C30FEF77C
:104E600019FB00B1FEE78F22DFF8A080224B01463C
:104E7000C8F80800C8F810004046C8F80C20C8F868
:104E800004B0C8F80030FEF705FB00B1FEE7FF23D1
:104E90004FF48042194C1A49E360A361194BA0609A
:104EA0006061E06120622046216063602261FCF75E
:104EB0004BFA824660B3FEE700100240001001404A
:104EC0000000311000080140000C01408405002062
:104ED000002800401806002000440040580600202A
:104EE000005C00404405002000380140D00500204F
:104EF000002C014000040040000800409C040020F9
:104F000000580040A0860100FC0400205C04002042
:104F1000012231493846FEF783FC01222F493046F1
:104F2000FEF77EFC2846FEF799FA2846FEF79AF926
:104F30004846FEF793FA4846FEF794F92846FEF7EE
:104F400091F94046FEF78AFA4046FEF78BF9524641
:104F500023492448FDF7B6FE012204212248FBF72D
:104F6000F9FF01234FF0FF32204D204602920193BA
:104F700000956322A021FCF715FBFA244FF4487139
:104F80003223281D069405910093CDF810A0CDF88A
:104F90000CA0CDF808A0CDF804A05A4653461449F9
:104FA000A5F10C045546FEF767FEA389E9B28B42D2
:104FB00005F1010503D92069FFF7B2F9F5E70023F0
:104FC0000C490D48A381FEF79BFD054B59781878D5
:104FD00000F0ECFAFEE700BFF2040020F404002029
:104FE0001406002084050020000C01401802002057
:104FF000141D01081806002044050020FEE700BF2C
:1050000010B5074C002220464FF48071FBF7A2FF39
:10501000204600222021FBF79DFF012010BD00BF8C
:10502000000C0140012812D0022801D00020704756
:1050300010B5044601224FF480710648FBF78AFF41
:10504000012220210348FBF785FF204610BDFFF712
:10505000D7BF00BF000C01402DE9F041A64C88B03D
:105060002378122B00F2BC81DFE813F02E005400ED
:10507000600072012E0138018000AF019701A90183
:1050800070001C01FB0012018500A200BA00C400E0
:1050900013006288A3889A42C0F09F81974D2B78B5
:1050A000002B40F0DF81964B5978187808F0E2F831
:1050B000002501224FF4005192486580FBF74AFF1A
:1050C000914B25701D70C9E001219048FBF73CFF12
:1050D000002800F0C0818A4D002229468C48FDF747
:1050E000F1FD8C4A8C4B12881B889A4204D2834B68
:1050F0001E78002E00F0DA81884A00211388528839
:1051000003EB83031B0193FBF2F31222A380618064
:105110002270A3E06288A3889A4280F086814FF4CF
:1051200000717A48FBF71AFF102106E07C4B628879
:105130001B889A4280F0778140217448FBF70EFF6C
:1051400063880133638008B0BDE8F0816288A3887A
:105150009A42C0F04281002280216C48FBF7FAFE9F
:105160000022237862800133237077E06288A3886D
:105170009A42D4D3EFE74FF480716A48FBF7E4FE1C
:10518000002800F0B2806549674B0A881B7849887F
:1051900002FB03F3C2EB021292FBF1F293FBF1F379
:1051A0000020217813444A1CA3802270608055E0BF
:1051B0006288A3889A42C0F01081002210215948C9
:1051C000FBF7C8FE0021554A1388528803EB83037E
:1051D00093FBF2F32278A380531C237061803DE09F
:1051E0006288A3889A42C0F0EE8000221123628078
:1051F000237033E0474D4D4E2B88317801334C48B6
:105200002B80FEF7C9FD4B482A88434B0578DFF811
:105210003CC1DFF80CE1484F484831781B880078E2
:10522000BCF800C0BEF800E03F78DFF8FC800092D8
:10523000434A98F80060128802900192CDF81CC091
:10524000404ACDF818E00597049603953848FEF7D4
:105250004DFD132101223C4B21701A7008B0BDE8AE
:10526000F0813A4B62881B889A42FFF465AF2E4B5F
:105270002A4A19781388528803FB01F393FBF2F34F
:105280009BB2A380002B40F0F5800E23237091E0A9
:105290006288A3889A42FFF442AF00220E23628004
:1052A0002370DBE71E4B62881B889A42FFF444AFF1
:1052B0000C2500230122802114482570638008B04A
:1052C000BDE8F041FBF746BE6288A3889A42FFF42E
:1052D00026AF0022052362802370BFE74FF4807160
:1052E0001048FBF731FE00287DD14021074808B067
:1052F000BDE8F041FBF732BE2C0200201502002071
:1053000014060020001001400C020020000C014097
:1053100084050020E60A0020C00A00200A000020C0
:10532000CC0A002000080140430B00201802002096
:105330001C020020540B0020C20A0020420B002057
:10534000E40A0020040B002014020020400B00207F
:105350006B4B62881B889A42FFF4EEAE69496A4B38
:105360000A881B78498802FB03F393FBF1F39BB295
:10537000A380002B40F08480644B65481B88007834
:1053800002FB03F302FB00F293FBF1F392FBF1F259
:1053900005219A1AA28021700CE04FF480715D48BB
:1053A000FBF7D2FD0028A0D05B4B1B78002B6ED101
:1053B000112323700023638008B0BDE8F081628868
:1053C000A3889A4239D21021B7E640F2B5336288F9
:1053D0009A427FF6B1AE0122BEE64FF40071ACE610
:1053E000002323703AE7FFF70BFE4648464B474938
:1053F000474D02881B7809882D7802FB03F302FBD6
:1054000001F102FB05F24088002593FBF0F391FBCC
:10541000F0F192FBF0F220780B449B1A421CA3801F
:10542000227065801AE7032543E7002302251A4608
:1054300080213A486380257041E7012210213548D8
:10544000FBF788FD344B2F4A19781388528803FBE9
:1054500001F30021BCE6324B187008B0BDE8F04102
:1054600008F082BB2F4B5978187808F037F90023E1
:105470002B701DE6FFF7C4FD23780133237099E7F5
:105480000220FFF7CFFD23780133237092E702203B
:10549000FFF7C8FD1B4922780B88498803EB83037B
:1054A00093FBF1F30132A380227083E769782878B7
:1054B00007F0E0FEFFF7A4FD32464FF400511A4812
:1054C000FBF748FD124B66801B785BB10D492278D3
:1054D0000888498803FB00F393FBF1F30132A380B2
:1054E0002270BBE6074A094B5188188813880622A8
:1054F00003FB00F393FBF1F32270A380AEE600BF41
:10550000400B00200A000020540B0020E40A002079
:10551000420B002000080140C20A0020000C01409C
:105520000C020020140600200010014010B51C4C95
:10553000A279012A17D00BD3022A05D1238933BBC4
:105540001849A3710A7010BD0022164B1A7010BDC5
:10555000002280211448FBF7FDFC0022A379228160
:105560000133A37110BD2389B3F5617F07D24021B8
:105570000D48FBF7F3FC23890133238110BD802103
:105580000948FBF7E7FCA3790133A37110BD402163
:105590000548FBF7E3FC2389013B238110BD00BFD5
:1055A0002C02002024020020000C01402DE9F04FC5
:1055B0004FF0100EB64FB74CB74EB84D80468946E7
:1055C0000FCF3F7889B020606160A260E360214620
:1055D0007246304664232774A5F800E0FEF7A0F871
:1055E0004FF0140EAE4FA5F800E00FCF20603868E2
:1055F0003F796160A260E3607246206121466423C6
:10560000A8482775FEF78CF84B4642462046A64927
:1056100009F0A6FA87B23A46214630464FF47A732B
:105620002F80FEF77DF8A14FA14BA24A1978106890
:105630000797A14FDFF8D4A20697A04FDFF8D0B2AA
:1056400005979F4FDFF8CC8204979E4FDFF8C892F2
:1056500003979D4F53465A460297CDF804809B4FBF
:10566000CDF80090FEF7B4FB5946994809F09CFA32
:10567000BAF800203946974809F072FAB9F80020C4
:105680003946954809F06CFAB8F800203946934835
:1056900009F066FADFF884928B4B39461A7848464F
:1056A00009F05EFADFF87882864B39461A78404670
:1056B00009F056FADFF86CA2814B39461A78504649
:1056C00009F04EFADFF860B27C4B39461A7858463A
:1056D00009F046FA784B39461A88814809F040FAB1
:1056E000724B39461A887F4809F03AFA4FF0190E82
:1056F0007D4FA5F800E00FCF2060616003CF3F88A9
:10570000A260E3607246206161614FF47A732146C2
:1057100030462783FEF704F86D48FBF7B3F900EB3A
:105720008000C0F1F0026A4B2046704909F018FA77
:1057300087B23A4621464FF47A7330462F80FDF700
:10574000EFFF6448FBF79EF907466348FBF79AF9B9
:10575000604B384400EB8000C0F1D7020093204634
:105760005D4B634909F0FCF987B23A4621464FF494
:105770007A7330462F80FDF7D3FF5848FBF782F944
:1057800000EB8000C0F1F002544B2046594909F06B
:10579000E7F987B23A4621464FF47A7330462F80B4
:1057A000FDF7BEFF4046FBF76DF9534F00EB80005D
:1057B000C0F1B80243463946204609F0D1F91FFA34
:1057C00080FE724621464FF47A733046A5F800E019
:1057D000FDF7A6FF5046FBF755F900EB8000C0F53A
:1057E000907253463946204609F0BAF987B23A46D4
:1057F00021464FF47A7330462F80FDF791FF4846DB
:10580000FBF740F93D4F00EB8000C0F193024B469F
:105810003946204609F0A4F91FFA80FE7246214657
:105820004FF47A733046A5F800E0FDF779FF58464B
:10583000FBF728F900EB8000C0F5A3725B46394600
:10584000204609F08DF987B23A46214630464FF49A
:105850007A732F80FDF764FF164B294E1868FEF708
:10586000E7FA0346024627492046338009F078F9D3
:1058700086B2324621464FF47A730A482E80FDF7ED
:105880004FFF0222204B1A7009B0BDE8F08F00BF15
:10589000201D01089C050020180600200E02002093
:1058A000341D0108440500205C1C0108400B002049
:1058B000180200201C020020CC0A0020C20A00208E
:1058C000430B0020540B0020420B00204C1D01080C
:1058D000040B0020F00A0020D00A0020440B002016
:1058E0002C0B0020180B0020501D01086C1D010816
:1058F000841D0108A01D0108B41D0108C81D010870
:1059000028020020DC1D010811020020C00A00202E
:10591000580B0020E40A0020E60A0020E80A0020D4
:10592000B80A00206C0B0020C40A0020F8B5BA4D5C
:10593000BA4C2A88531E9BB22B2B05D821880139DB
:1059400089B22B2940F2A780A2F12E012B2925D85C
:105950002188013989B22B2940F28680A2F5A371F2
:105960002B293BD82188013989B22B2936D80E251D
:10597000AB4BAC4C07CBB3F800E09F78AA4E20604D
:105980006160A26021462A466423A4F80CE0A77354
:10599000A6483580FDF7C4FE0420F8BDA2F16F01D2
:1059A0002B29DBD82188013989B22B2916D80E255D
:1059B0009B4B9C4C07CBB3F800E09F789A4E20603D
:1059C0006160A26021462A466423A4F80CE0A77314
:1059D00096483580FDF7A4FE0320F8BD2B2B0DD88B
:1059E0002188A1F18A002B286CD9A1F1B7002B28BE
:1059F00040F2E380E4392B2940F2F6806FF4C3765D
:105A00009119572900F2B7802188013989B22B29D1
:105A100040F24681A2F1C9014E2905D821884239B8
:105A200089B2172940F22581A2F1D301302960D82B
:105A300021886F3989B212295BD80E25784B794CB1
:105A400007CBB3F800E09F78774E20606160A260DA
:105A500021462A466423A4F80CE0A77373483580D6
:105A6000FDF75EFE0C20F8BD0E256D4B6D4C07CB8F
:105A7000B3F800E09F786C4E20606160A260214620
:105A80002A466423A4F80CE0A77368483580FDF724
:105A900047FE0220F8BD0E25614B624C07CBB3F8E0
:105AA00000E09F78604E20606160A26021462A4637
:105AB0006423A4F80CE0A7735C483580FDF730FE42
:105AC0000120F8BD0E25564B564C07CBB3F800E02D
:105AD0009F78554E20606160A26021462A4664236B
