:020000040800F2
:100000000050002039EB00083DEA000841EA0008F2
:1000100045EA000849EA00084DEA0008000000002F
:1000200000000000000000000000000051EA00088D
:1000300055EA00080000000059EA00085DEA0008DF
:1000400081EB000881EB000881EB00086DEA0008F5
:1000500081EB000881EB000879EA000881EB0008D9
:1000600081EB000881EB000881EB000881EB0008C0
:1000700081EB000881EB000881EB000881EB0008B0
:1000800081EB000881EB000881EB000881EB0008A0
:1000900081EB000881EB000881EB000881EA000891
:1000A00081EB000895EA000881EB000881EB00086D
:1000B00081EB0008A1EA0008ADEA000881EB000826
:1000C00081EB0008B9EA0008C5EA000881EB0008E6
:1000D00081EB0008D1EA0008DDEA000881EB0008A6
:1000E00081EB000881EB000881EB000800000000B4
:1000F0000000000000000000000000000000000000
:0C01000000000000000000005FF808F1A3
:1001100010B5054C237833B9044B13B10448AFF341
:1001200000800123237010BD100200200000000099
:10013000182301080C4B43B10C4810B50C49AFF320
:1001400000800C48036823B910BD0A48036833B91E
:100150007047094B002BF7D0BDE810401847064BFD
:10016000002BF5D0184700BF00000000182301083D
:1001700014020020100200200000000081F0004165
:1001800002E000BF83F0004330B54FEA41044FEA7C
:10019000430594EA050F08BF90EA020F1FBF54EA17
:1001A000000C55EA020C7FEA645C7FEA655C00F0B3
:1001B000E2804FEA5454D4EB5555B8BF6D420CDD84
:1001C0002C4480EA020281EA030382EA000083EA07
:1001D000010180EA020281EA0303362D88BF30BDA7
:1001E00011F0004F4FEA01314FF4801C4CEA1131FD
:1001F00002D0404261EB410113F0004F4FEA03335C
:100200004CEA133302D0524263EB430394EA050FE6
:1002100000F0A780A4F10104D5F1200E0DDB02FA55
:100220000EFC22FA05F2801841F1000103FA0EF2E9
:10023000801843FA05F359410EE0A5F120050EF1AF
:10024000200E012A03FA0EFC28BF4CF0020C43FAE0
:1002500005F3C01851EBE37101F0004507D54FF0ED
:10026000000EDCF1000C7EEB00006EEB0101B1F53D
:10027000801F1BD3B1F5001F0CD349085FEA300083
:100280004FEA3C0C04F101044FEA445212F5800F8E
:1002900080F09A80BCF1004F08BF5FEA500C50F12B
:1002A000000041EB045141EA050130BD5FEA4C0C0E
:1002B000404141EB010111F4801FA4F10104E9D197
:1002C00091F0000F04BF01460020B1FA81F308BF8E
:1002D0002033A3F10B03B3F120020CDA0C3208DD5A
:1002E00002F1140CC2F10C0201FA0CF021FA02F135
:1002F0000CE002F11402D8BFC2F1200C01FA02F1A5
:1003000020FA0CFCDCBF41EA0C019040E41AA2BFC9
:1003100001EB0451294330BD6FEA04041F3C1CDA91
:100320000C340EDC04F11404C4F1200220FA04F0B1
:1003300001FA02F340EA030021FA04F345EA03015B
:1003400030BDC4F10C04C4F1200220FA02F001FA1D
:1003500004F340EA0300294630BD21FA04F029469F
:1003600030BD94F0000F83F4801306BF81F4801138
:100370000134013D4EE77FEA645C18BF7FEA655CAB
:1003800029D094EA050F08BF90EA020F05D054EA7D
:10039000000C04BF1946104630BD91EA030F1EBF82
:1003A0000021002030BD5FEA545C05D14000494186
:1003B00028BF41F0004130BD14F580043CBF01F579
:1003C000801130BD01F0004545F0FE4141F470015F
:1003D0004FF0000030BD7FEA645C1ABF194610463A
:1003E0007FEA655C1CBF0B46024650EA013406BF3B
:1003F00052EA033591EA030F41F4002130BD00BFFA
:1004000090F0000F04BF0021704730B54FF48064B6
:1004100004F132044FF000054FF0000150E700BF37
:1004200090F0000F04BF0021704730B54FF4806496
:1004300004F1320410F0004548BF40424FF0000183
:100440003EE700BF42004FEAE2014FEA31014FEAC6
:1004500002701FBF12F07F4393F07F4F81F0605115
:10046000704792F0000F14BF93F07F4F704730B584
:100470004FF4607401F0004521F0004120E700BF17
:1004800050EA010208BF704730B54FF000050AE09E
:1004900050EA010208BF704730B511F0004502D59F
:1004A000404261EB41014FF4806404F132045FEAA1
:1004B000915C3FF4DCAE4FF003025FEADC0C18BF46
:1004C00003325FEADC0C18BF033202EBDC02C2F13C
:1004D000200300FA03FC20FA02F001FA03FE40EACE
:1004E0000E0021FA02F11444C1E600BF70B54FF0CE
:1004F000FF0C4CF4E06C1CEA11541DBF1CEA1355B0
:1005000094EA0C0F95EA0C0F00F0DEF82C4481EA17
:10051000030621EA4C5123EA4C5350EA013518BF37
:1005200052EA033541F4801143F4801338D0A0FB24
:1005300002CE4FF00005E1FB02E506F00042E0FBD1
:1005400003E54FF00006E1FB03569CF0000F18BFD7
:100550004EF0010EA4F1FF04B6F5007F64F540747F
:1005600004D25FEA4E0E6D4146EB060642EAC62112
:1005700041EA55514FEAC52040EA5E504FEACE2E7F
:10058000B4F1FD0C88BFBCF5E06F1ED8BEF1004F82
:1005900008BF5FEA500E50F1000041EB045170BDFE
:1005A00006F0004646EA010140EA020081EA030142
:1005B000B4EB5C04C2BFD4EB0C0541EA045170BD3E
:1005C00041F480114FF0000E013C00F3AB8014F1B8
:1005D000360FDEBF002001F0004170BDC4F1000401
:1005E000203C35DA0C341BDC04F11404C4F1200582
:1005F00000FA05F320FA04F001FA05F240EA0200DD
:1006000001F0004221F0004110EBD37021FA04F612
:1006100042EB06015EEA430E08BF20EAD37070BDCC
:10062000C4F10C04C4F1200500FA04F320FA05F02B
:1006300001FA04F240EA020001F0004110EBD3702D
:1006400041F100015EEA430E08BF20EAD37070BD9D
:10065000C4F1200500FA05F24EEA020E20FA04F376
:1006600001FA05F243EA020321FA04F001F0004125
:1006700021FA04F220EA020000EBD3705EEA430E96
:1006800008BF20EAD37070BD94F0000F0FD101F0C5
:100690000046400041EB010111F4801F08BF013CFE
:1006A000F7D041EA060195F0000F18BF704703F03C
:1006B0000046520043EB030313F4801F08BF013DC3
:1006C000F7D043EA0603704794EA0C0F0CEA13557F
:1006D00018BF95EA0C0F0CD050EA410618BF52EA39
:1006E0004306D1D181EA030101F000414FF000003F
:1006F00070BD50EA410606BF1046194652EA43064D
:1007000019D094EA0C0F02D150EA013613D195EAC0
:100710000C0F05D152EA03361CBF104619460AD108
:1007200081EA030101F0004141F0FE4141F4700112
:100730004FF0000070BD41F0FE4141F4780170BD02
:1007400070B54FF0FF0C4CF4E06C1CEA11541DBF67
:100750001CEA135594EA0C0F95EA0C0F00F0A7F869
:10076000A4EB050481EA030E52EA03354FEA013196
:1007700000F088804FEA03334FF0805545EA1313A9
:1007800043EA12634FEA022245EA111545EA106571
:100790004FEA00260EF000419D4208BF964244F108
:1007A000FD0404F5407402D25B084FEA3202B61A27
:1007B00065EB03055B084FEA32024FF480104FF4FB
:1007C000002CB6EB020E75EB030E22BFB61A75466F
:1007D00040EA0C005B084FEA3202B6EB020E75EB02
:1007E000030E22BFB61A754640EA5C005B084FEA6A
:1007F0003202B6EB020E75EB030E22BFB61A754637
:1008000040EA9C005B084FEA3202B6EB020E75EB41
:10081000030E22BFB61A754640EADC0055EA060E02
:1008200018D04FEA051545EA16754FEA06164FEA45
:10083000C30343EA52734FEAC2025FEA1C1CC0D1F1
:1008400011F4801F0BD141EA00014FF000004FF07E
:10085000004CB6E711F4801F04BF01430020B4F13F
:10086000FD0C88BFBCF5E06F3FF6AFAEB5EB030CF7
:1008700004BFB6EB020C5FEA500C50F1000041EBF4
:10088000045170BD0EF0004E4EEA113114EB5C04C1
:10089000C2BFD4EB0C0541EA045170BD41F4801194
:1008A0004FF0000E013C90E645EA060E8DE60CEA9C
:1008B000135594EA0C0F08BF95EA0C0F3FF43BAFB9
:1008C00094EA0C0F0AD150EA01347FF434AF95EA70
:1008D0000C0F7FF425AF104619462CE795EA0C0F54
:1008E00006D152EA03353FF4FDAE1046194622E721
:1008F00050EA410618BF52EA43067FF4C5AE50EAFB
:1009000041047FF40DAF52EA43057FF4EBAE12E7EA
:100910004FF0FF3C06E000BF4FF0010C02E000BFCB
:100920004FF0010C4DF804CD4FEA410C7FEA6C5CAE
:100930004FEA430C18BF7FEA6C5C1BD001B050EA51
:10094000410C0CBF52EA430C91EA030F02BF90EA3C
:10095000020F0020704710F1000F91EA030F58BFFB
:10096000994208BF90422CBFD8176FEAE37040F05D
:10097000010070474FEA410C7FEA6C5C02D150EAFB
:10098000013C07D14FEA430C7FEA6C5CD6D152EAB6
:10099000033CD3D05DF8040B704700BF844610467B
:1009A00062468C461946634600E000BF01B5FFF77A
:1009B000B7FF002848BF10F1000F01BD4DF808ED4A
:1009C000FFF7F4FF0CBF012000205DF808FB00BF1B
:1009D0004DF808EDFFF7EAFF34BF012000205DF875
:1009E00008FB00BF4DF808EDFFF7E0FF94BF0120C2
:1009F00000205DF808FB00BF4DF808EDFFF7CEFFC3
:100A000094BF012000205DF808FB00BF4DF808ED01
:100A1000FFF7C4FF34BF012000205DF808FB00BFD2
:100A20004FEA410212F5001215D211D56FF4787316
:100A3000B3EB625212D94FEAC12343F0004343EAB9
:100A4000505311F0004F23FA02F018BF4042704794
:100A50004FF00000704750EA013005D111F000401E
:100A600008BF6FF0004070474FF00000704700BFB4
:100A70004FEA4102B2F1E04324BFB3F5001CDCF1C0
:100A8000FE5C0DD901F0004C4FEAC0024CEA5070F8
:100A9000B2F1004F40EB830008BF20F00100704727
:100AA00011F0804F21D113F13872BCBF01F000402A
:100AB000704741F480114FEA5252C2F11802C2F15C
:100AC000200C10FA0CF320FA02F018BF40F00100DD
:100AD0004FEAC1234FEAD32303FA0CFC40EA0C008F
:100AE00023FA02F34FEA4303CCE77FEA625307D1CC
:100AF00050EA01331EBF4FF0FE4040F44000704703
:100B000001F0004040F0FE4040F40000704700BF9C
:100B100080F0004002E000BF81F0004142001FBFB2
:100B20005FEA410392EA030F7FEA226C7FEA236CBB
:100B30006AD04FEA1262D2EB1363C1BFD2184140B0
:100B400048404140B8BF5B42192B88BF704710F046
:100B5000004F40F4000020F07F4018BF404211F0E9
:100B6000004F41F4000121F07F4118BF494292EA51
:100B7000030F3FD0A2F1010241FA03FC10EB0C007D
:100B8000C3F1200301FA03F100F0004302D549420A
:100B900060EB4000B0F5000F13D3B0F1807F06D3B7
:100BA00040084FEA310102F10102FE2A51D2B1F1AF
:100BB000004F40EBC25008BF20F0010040EA0300A4
:100BC0007047490040EB000010F4000FA2F1010251
:100BD000EDD1B0FA80FCACF1080CB2EB0C0200FADB
:100BE0000CF0AABF00EBC25052421843BCBFD04029
:100BF0001843704792F0000F81F4000106BF80F4A3
:100C000000000132013BB5E74FEA41037FEA226C65
:100C100018BF7FEA236C21D092EA030F04D092F030
:100C2000000F08BF0846704790EA010F1CBF002064
:100C3000704712F07F4F04D1400028BF40F00040C1
:100C4000704712F100723CBF00F50000704700F0E1
:100C5000004343F0FE4040F4000070477FEA226208
:100C600016BF08467FEA23630146420206BF5FEAD9
:100C7000412390EA010F40F4800070474FF00003D9
:100C800004E000BF10F0004348BF40425FEA000CA0
:100C900008BF704743F0964301464FF000001CE048
:100CA00050EA010208BF70474FF000030AE000BF9E
:100CB00050EA010208BF704711F0004302D54042DC
:100CC00061EB41015FEA010C02BF8446014600204E
:100CD00043F0B64308BFA3F18053A3F50003BCFA69
:100CE0008CF2083AA3EBC25310DB01FA02FC634416
:100CF00000FA02FCC2F12002BCF1004F20FA02F21D
:100D000043EB020008BF20F00100704702F120020F
:100D100001FA02FCC2F1200250EA4C0021FA02F270
:100D200043EB020008BF20EADC7070474FF0FF0C75
:100D30001CEAD0521EBF1CEAD15392EA0C0F93EA70
:100D40000C0F6FD01A4480EA010C400218BF5FEA12
:100D500041211ED04FF0006343EA501043EA511185
:100D6000A0FB01310CF00040B1F5000F3EBF49007F
:100D700041EAD3715B0040EA010062F17F02FD2A83
:100D80001DD8B3F1004F40EBC25008BF20F0010066
:100D9000704790F0000F0CF0004C08BF49024CEA7D
:100DA000502040EA51207F3AC2BFD2F1FF0340EA0F
:100DB000C250704740F400004FF00003013A5DDC80
:100DC00012F1190FDCBF00F000407047C2F10002C1
:100DD000410021FA02F1C2F1200200FA02FC5FEAAE
:100DE000310040F1000053EA4C0308BF20EADC70F8
:100DF000704792F0000F00F0004C02BF400010F46A
:100E0000000F013AF9D040EA0C0093F0000F01F016
:100E1000004C02BF490011F4000F013BF9D041EA38
:100E20000C018FE70CEAD15392EA0C0F18BF93EA3A
:100E30000C0F0AD030F0004C18BF31F0004CD8D164
:100E400080EA010000F00040704790F0000F17BFEB
:100E500090F0004F084691F0000F91F0004F14D031
:100E600092EA0C0F01D142020FD193EA0C0F03D189
:100E70004B0218BF084608D180EA010000F000408C
:100E800040F0FE4040F40000704740F0FE4040F467
:100E9000400070474FF0FF0C1CEAD0521EBF1CEA06
:100EA000D15392EA0C0F93EA0C0F69D0A2EB030224
:100EB00080EA010C49024FEA402037D04FF08053BE
:100EC00043EA111143EA10130CF000408B4238BF83
:100ED0005B0042F17D024FF4000C8B4224BF5B1A91
:100EE00040EA0C00B3EB510F24BFA3EB510340EADF
:100EF0005C00B3EB910F24BFA3EB910340EA9C008D
:100F0000B3EBD10F24BFA3EBD10340EADC001B01FC
:100F100018BF5FEA1C1CE0D1FD2A3FF650AF8B42A0
:100F200040EBC25008BF20F0010070470CF0004CAD
:100F30004CEA50207F32C2BFD2F1FF0340EAC250D8
:100F4000704740F400004FF00003013A37E792F099
:100F5000000F00F0004C02BF400010F4000F013AF7
:100F6000F9D040EA0C0093F0000F01F0004C02BFF2
:100F7000490011F4000F013BF9D041EA0C0195E75B
:100F80000CEAD15392EA0C0F08D142027FF47DAFF4
:100F900093EA0C0F7FF470AF084676E793EA0C0FE4
:100FA00004D14B023FF44CAF08466EE730F0004CE2
:100FB00018BF31F0004CCAD130F000427FF45CAF72
:100FC00031F000437FF43CAF5FE700BF4FF0FF3CE0
:100FD00006E000BF4FF0010C02E000BF4FF0010C33
:100FE0004DF804CD4FEA40024FEA41037FEA226CFC
:100FF00018BF7FEA236C11D001B052EA530C18BF1E
:1010000090EA010F58BFB2EB030088BFC81738BF82
:101010006FEAE17018BF40F0010070477FEA226C70
:1010200002D15FEA402C05D17FEA236CE4D15FEA6C
:10103000412CE1D05DF8040B704700BF84460846A0
:101040006146FFE70FB5FFF7C9FF002848BF10F161
:10105000000F0FBD4DF808EDFFF7F4FF0CBF0120A6
:1010600000205DF808FB00BF4DF808EDFFF7EAFF30
:1010700034BF012000205DF808FB00BF4DF808EDEB
:10108000FFF7E0FF94BF012000205DF808FB00BFE0
:101090004DF808EDFFF7D2FF94BF012000205DF866
:1010A00008FB00BF4DF808EDFFF7C8FF34BF012073
:1010B00000205DF808FB00BF42000ED2B2F1FE4FE7
:1010C0000BD34FF09E03B3EB126209D44FEA002317
:1010D00043F0004323FA02F070474FF000007047DE
:1010E00012F1610F01D1420202D14FF0FF3070477F
:1010F0004FF00000704700BF10F8012B11F8013BC2
:10110000012A28BF9A42F7D0D01A7047034613F835
:10111000012B002AFBD1181A013870474FEA410C05
:101120007FEA6C5C02D150EA013C0AD14FEA430CE1
:101130007FEA6C5C02D152EA033C02D14FF000001E
:1011400070474FF0010070474A0011D212F50012AB
:1011500011D20DD56FF47873B3EB62520ED44FEA0F
:10116000C12343F0004343EA505323FA02F070478F
:101170004FF00000704750EA013002D14FF0FF30CD
:1011800070474FF0000070474FF47A7370B50D4D03
:101190000D4A29781268B3FBF1F30646B2FBF3F06F
:1011A00000F09EF808B90F2E01D9012070BD044649
:1011B000024631464FF0FF3000F050F86E60204696
:1011C00070BD00BF000000203C000020074A08B5A9
:1011D0001368032043F01003136000F02DF8002083
:1011E000FFF7D2FF0DF0B8FA002008BD0020024042
:1011F000034A044B11681B780B441360704700BF0F
:101200008802002000000020014B1868704700BFD2
:101210008802002038B50446FFF7F6FF631C054638
:1012200002D0044B1B781C44FFF7EEFF401B8442A6
:10123000FAD838BD000000204FF6FF01064A000230
:10124000D36800F4E0600B4043F0BF6343F4003325
:101250000343D360704700BF00ED00E0184B70B44B
:10126000DC68C4F30224C4F10706042E04F104036D
:1012700028BF0426062B17D90125033CA540013DB4
:101280002A400123B340013B1940A140002841EA14
:1012900002010CDB090100F16040C9B200F56140B8
:1012A00080F8001370BC704700221446E9E7054B34
:1012B00000F00F000901C9B20344197670BC7047F1
:1012C00000ED00E0FCEC00E0012300F01F01034A08
:1012D00040098B4042F82030704700BF00E100E039
:1012E0000138B0F1807F0DD230B4F0250022072103
:1012F000054B064C586084F82350104630BC9A6069
:10130000196070470120704710E000E000ED00E038
:10131000044A042813680CBF43F0040323F00403B9
:101320001360704710E000E0704700BF08B5FFF79A
:10133000FBFF08BD38B590F82130022B04D0042201
:1013400001248263204638BD03681D491A688B4218
:1013500022F00E021A601A6822F001021A6021D0EF
:10136000184A93421CD0143293421FD01432934235
:101370001FD0143293421FD0143293420CBF4FF44B
:1013800080134FF08073012100240F4D426B6B607E
:1013900080F8211080F8204032B19047204638BDB7
:1013A0001023F0E70123EEE71446CBE74FF48073F8
:1013B000E9E74FF48053E6E74FF48033E3E700BFFB
:1013C000080002401C000240000002402DE9F04FDE
:1013D0004FF0000885B043466FF01F06DFF8E0E1EC
:1013E000DFF8E0C1704F009005E00133102B06F1EB
:1013F000040600F08B8001220C689A401440A2423F
:10140000F3D14D68122D00F0A58000F28E80022DE0
:1014100000F0A78040F28380032D00F09F80112D03
:1014200002D1CA6802F10408FF2C72D8009A4FEA70
:10143000830A914612680F2505FA0AFB22EA0B027D
:1014400008FA0AFA42EA0A02C9F80020D1F804A010
:101450001AF0805FC9D0DEF8189023F0030249F03B
:101460000109CEF81890DEF8189002F1804209F0D8
:101470000109CDF80C9002F5803203F00309DDF884
:101480000CB04FEA8909D2F808B005FA09F52BEA41
:10149000050001900098604579D0444DA84279D06C
:1014A000434D0098A8427AD0424D0098A8420CBF04
:1014B0004FF0030B4FF0040B0BFA09F901981AF4E3
:1014C000803F40EA090595603A6803F1010314BFC3
:1014D0002243A2433A607A681AF4003F14BF2243C1
:1014E000A2437A60BA681AF4801F14BF2243A24351
:1014F000BA60FA681AF4001F14BF144322EA040405
:10150000102BFC6006F104067FF475AF05B0BDE852
:10151000F08F0098B246426800F104098BE7A5B14C
:10152000012D81D1D1F80C807EE7234885420CD073
:101530001BD92248854208D000F58030854204D06E
:10154000DFF884904D457FF46FAF8D68BDB94FF0E3
:10155000040869E7CA6802F10C0865E74FF0000863
:1015600062E7CA6802F108085EE7DFF860904D455F
:10157000EBD009F580394D457FF456AFE5E700988B
:10158000012D0CBF026142614FF008084CE74FF09B
:10159000000993E74FF0010B0BFA09F98EE74FF0C2
:1015A000020B0BFA09F989E700040140000C014025
:1015B0000010014000140140000021100000311013
:1015C000001002400008014000002210000011102D
:1015D0008368194214BF01200020704702B9090432
:1015E00001617047C3685940C1607047044A51693E
:1015F000014200D1704708B5506102F081FE08BD7C
:10160000000401402DE9F843074690469946C1F38E
:1016100007468DB23C68012E1FD0A06935EA000351
:1016200014BF0120002000B3606943051FD4B8F146
:10163000FF3FF0D0B8F1000F05D0FFF7E5FDA0EBBC
:1016400009008045E6D2002320223B6387F83C3026
:1016500087F83D200320BDE8F883626935EA02037C
:1016600014BF012000200028DED1BDE8F88300224D
:101670006FF48066042520212368012043F4007361
:10168000236066613D6487F83C203A6387F83D102B
:10169000BDE8F8832DE9F041804617461D46C1F3A9
:1016A00007468CB2D8F8001009E0886934EA0003D4
:1016B0000CBF01200020B8420BD16B1C0CD1012EB5
:1016C000F3D14B6934EA03030CBF01200020B84278
:1016D000F3D00020BDE8F0812DB1FFF795FD069B0A
:1016E000C01A8542DED200232022C8F8303088F8A4
:1016F0003C3088F83D20032088F83E30BDE8F0817A
:10170000F8B504460E4617462068436913F00403F3
:1017100023D145696A050CD56FF480650421202228
:10172000456121640120236384F83C3084F83D2026
:10173000F8BD731CE9D026B1FFF766FDC01B8642D9
:10174000E2D220210022236C84F83C200B43236446
:101750000320226384F83D10F8BD0020F8BD00BFCF
:10176000F8B504460E4617462068436913F0800317
:1017700023D145696A050CD56FF4806504212022C8
:10178000456121640120236384F83C3084F83D20C6
:10179000F8BD731CE9D026B1FFF736FDC01B8642A9
:1017A000E2D220210022236C84F83C200B432364E6
:1017B0000320226384F83D10F8BD0020F8BD00BF6F
:1017C0002DE9F047056884B02C680D9E44F48074C0
:1017D000884691469A462C600C9B009600224FF05A
:1017E00001110746FFF756FF18B1032004B0BDE80A
:1017F000F0873A6808F0FE0313611D4933460C9ADE
:101800003846FFF7FFFE20B13B6C042BEDD10120E1
:10181000ECE73B6803905969324603919B690C9948
:1018200003933846039BFFF79BFF88B9BAF1010F7A
:1018300018D039684FEA19230B6132460C993846A3
:10184000FFF78EFF20B93A685FFA89F31361CDE79D
:101850003B6C042BC9D13A680120136843F4007330
:101860001360C3E73B685FFA89F21A61BEE700BF05
:101870000200010000287ED0F8B590F83D30044603
:1018800003F0FF02002B61D02423226884F83D304E
:10189000136823F00103136001F03EFA6368374ACE
:1018A000934230D8364A90424ED95A00431EB3FB79
:1018B000F2F30133C3F30B03042B38BF0423314A83
:1018C000A2FB00202268800C411C506011620021A4
:1018D0004FF0200EE069E768266A256906433D431C
:1018E0006069A769D361384316609560D06013685A
:1018F000084643F001031360216484F83DE021634E
:1019000084F83E10F8BD204A90421DD94FF49671DC
:101910001C4D1E4AA5FB0065AD0C01FB05F1A2FBA9
:101920000121A6682268890901315560116296B9C2
:10193000013803EB4303B0FBF3F30133C3F30B03B1
:10194000BBB143F40043C2E70120F8BD80F83C205E
:101950000CF052FF98E703EB830303EB830301389A
:10196000B0FBF3F30133C3F30B0313B143F4404370
:10197000ADE70123ABE70120704700BFA08601005F
:101980007F841E0083DE1B43FF083D00D34D6210A1
:101990002DE9F047044682B099460E461746BDF839
:1019A0002C80FFF731FC94F83D30202B03D002202F
:1019B00002B0BDE8F0870546009019230122424994
:1019C0002046FFF767FE0028F1D194F83C30012B48
:1019D000EDD00123226884F83C301368D90703D482
:1019E000136843F00103136040204FF0210E4FF0C5
:1019F000000A11684B4621F400611160334A3146F8
:101A00000A9E84F83DE084F83E00C4F840A0A4F8A3
:101A10002A80E262608D66620C9E019500963A46CD
:101A200020852046FFF7CCFE002839D1238DC3B195
:101A30002A460C992046FFF793FE002837D1616AA9
:101A400020684B1C63620B78268D0361638D721EC8
:101A5000013B9BB26385476993B27A072385E6D53C
:101A600093B92A460C992046FFF74AFEF8B920217F
:101A70002268136843F40073136084F83D1084F8FF
:101A80003C0084F83E0093E78B1C63624A78B31EE7
:101A90000261628D9BB2013A92B223856285C6E7EC
:101AA000236C84F83CA0042B0BD0032080E7236C2C
:101AB000042BFAD122680120136843F400731360E9
:101AC00076E7012074E700BF020010000000FFFF6E
:101AD0002DE9F041002482B0019490F83D40BDF81A
:101AE0002460202C04D00225284602B0BDE8F081F5
:101AF000294C2A4D2468E408A5FB0454240A04EB6D
:101B0000840404EB8404019403E00468A569AF072E
:101B10000CD5019C651E0195002CF6D12023046391
:101B200080F83C4080F83D300325DDE790F83C50DC
:101B3000012DD8D00127256880F83C70ED0702D42C
:101B400025683D43256000274FF021084FF0400CE9
:101B5000D4F800E03D462EF4006EC4F800E0DFF853
:101B600040E080F83D8080F83EC007644685C0F8BC
:101B70002CE041648264C36407652368089A43F4D7
:101B80008073426206852360636880F83C7043F48A
:101B9000E0636360A8E700BF3C00002089B5F8144B
:101BA0000000FFFF704700BF704700BF704700BFD5
:101BB000704700BF704700BF704700BF704700BF4D
:101BC000704700BF704700BF704700BF38B590F83E
:101BD0003D300446293B012B4ED990F83D30602B17
:101BE000036805D05A6815055CBF202280F83D20A7
:101BF0000022226384F83E201A6822F400621A60F0
:101C00005A6812F4006214D0616B5A6891F821008E
:101C100022F4006201285A6035D03A4B08464B63E3
:101C2000FFF788FB002860D194F83D30282B13D0B3
:101C300038BD94F83D10602942D05A69520604D547
:101C4000626A1B69511C616213702046FFF7BAFF7C
:101C500094F83D30282BEBD1236C5B07E8D50023AB
:101C6000202229492046E162236384F83D2084F83C
:101C70003E30FFF7A1FF38BD00232822036303682D
:101C800080F83D20B8E7A36B1E4A18465A63FFF759
:101C900051FB0028C8D023685A69500605D5626AEE
:101CA0001B69511C61621370236820211A68A06BA4
:101CB00022F001021A60436B84F83D109847B3E7A5
:101CC000202184F83D1022645A69510605D5626AC4
:101CD0001B69511C6162137023681A68204622F048
:101CE00001021A60FFF770FF9EE720252268606BF3
:101CF0001368416B23F00103136084F83D5088475B
:101D000092E700BF412600080000FFFFF0B504463F
:101D100003688DB09D695969586894F83E20D2B225
:101D2000102A00F08F80402A00F08C808E4A0A40F2
:101D30001AB3820500F102828C4A2A40002A00F080
:101D4000F9808B4A0A40002A40F0B381894A0A4050
:101D5000002A00F0D480860540F1D180628D92B2D5
:101D6000002A00F0CC80626A511C616212781A610C
:101D7000638D013B9BB26385C1E07F4F0F40002F15
:101D8000DAD08605D8D594F83D1058681E4620F460
:101D9000E06058600B925A69C9B20B921A6842F01F
:101DA00001021A600B9A1A6822F480621A605A685B
:101DB00010050ED594F83D20222A00F04E8294F8AA
:101DC0003D202A2A00F04982626B1268526892B262
:101DD0006285628D92B2E2B15A69520709D5626A90
:101DE0001B69501C60621370638D2668013B9BB2B7
:101DF000638573695B0608D5636A3269581C606243
:101E00001A70638D013B9BB26385236C43F004031E
:101E10002364236C002B40F03382A1F12802022AB4
:101E200040F2E681236B222B01D0222967D10023C7
:101E300020222363204684F83D2084F83E30FFF7BB
:101E4000B7FE5CE011F0011F43D0860500F15F8111
:101E50004A4A0A40002A54D0444A2A40002A44D020
:101E6000434A0A40002A00F08D80470540F18A80ED
:101E7000404A0A40002A40F0898094F83D20258D90
:101E800094F83E10D2B2C9B2E06A002D40F002824E
:101E9000212A00F04882402931D1222A2FD1628D97
:101EA00092B2002A00F02D8294F83E20402A7FF45E
:101EB0005AAF226D002A40F0B182E26C012AA26C76
:101EC00000F0F982C2F307221A61236D0133236502
:101ED00015E02A4A0A40A2B18205BDD5626CD2B291
:101EE0001A61224A2A40002ABAD1254A0A40002A09
:101EF00078D1204A0A4012B1810500F139810DB034
:101F0000F0BD194A0A40002AA6D08705A4D594F846
:101F10003E20E76AD4F830E094F83D60D2B2222E39
:101F200000F07E8100220A925A690A929A690A9206
:101F30000A9A91E7124A0A40002A40F08B800D4A23
:101F40000A40002ADBD08205D9D5628D92B2002AE0
:101F5000D5D0626A1B69511C61621370638D013BAD
:101F60009BB26385CBE700BF0200010004001000B4
:101F700080000100040001001000010008000100C1
:101F800040000100A44A0A40002AB8D08605B6D510
:101F9000E16A94F83D20212AB1D1628D92B2002AE3
:101FA0007FF4E1AE042905D0082903D011F5803F64
:101FB00040F0AC81002120205A6822F4E0625A608F
:101FC0001A6842F400721A60216384F83D0094F8A4
:101FD0003E302046402B84F83E1000F0C181FFF7D0
:101FE000E1FD8CE7450584D58B4A0A40002A83D160
:101FF00094F83D20222A82D1628D92B2032AA8D879
:10200000023A012AE26A40F2718120250021022A67
:102010001A68606A14BF22F4806242F480621A6017
:102020005A6822F4E0625A601B69421C62620370C3
:10203000638D013B9BB2638584F83D50216394F826
:102040003E302046402B84F83E1000F04C81FFF7D4
:10205000ABFD54E745057FF572AF6F4A0A40002A91
:102060007FF471AF94F83D10628DC9B292B2002A2C
:102070003FF445AF626A1B69501C60621370638D48
:10208000013B9BB26385638D9BB2002B7FF437AF1E
:102090002A297FF434AF222528212268204653685C
:1020A00023F480635360256384F83D10FFF780FDBF
:1020B00025E747057FF54AAE574A0A40002A7FF4D4
:1020C0004AAE94F83D10628DC9B292B2002A3FF434
:1020D00016AF626A501C606212781A61628D013A12
:1020E00092B26285628D92B2002A7FF408AF2929EC
:1020F0007FF405AF212528215A68204622F480620A
:102100005A60256384F83D10FFF750FDF7E694F818
:102110003E20402A64D02269B2F5804F1CD0226D47
:10212000002A71D0226D012A7FF496AE626CD21122
:1021300002F0060242F0F1021A618DE699699B698C
:1021400081F004011F06C1F3800154BFA289228BD4
:102150002046FFF72FFDD2E694F83D20212A626C3D
:1021600016BF42F0010202F0FE02D2B21A6173E61B
:10217000E16A628D92B2032A75D0628D92B2022A10
:102180007FF4E7AE042900F08980082900F08680FA
:1021900011F5803F00F082801A68022914BF22F4F2
:1021A000806242F480621A605A6822F440725A6077
:1021B0002020626A1B69551C65621370638D22685A
:1021C000013B9BB26385636A12695D1C65621A708C
:1021D000638D0021013B9BB2638584F83D002DE7B0
:1021E000226D002A50D1626C02F0FE021A6133E6C1
:1021F00020220A492046E162236384F83D2084F8C6
:102200003E30FFF7D9FC7AE6626CD21102F006028A
:1022100042F0F0021A611FE6040001000000FFFF17
:10222000266D16B9402A00F0B980266D26B92269BC
:10223000B2F5404F00F0B980628D92B2002A36D1DB
:1022400002925A6902929A690292029A1A6842F4B8
:1022500000721A6000222265FEE5A26B12685268C5
:1022600092B26285B5E5042905D0082903D011F59D
:10227000803F7FF46EAE1A6822F480621A6068E6CE
:102280002046FFF7A3FC3AE6626C42F00102D2B2AC
:102290001A61E1E5212A7FF4FEAD00E65A6822F4D6
:1022A00040725A601A6842F400721A6080E7628DC8
:1022B00092B2012A57D0628D92B2022A00F0838036
:1022C0001A6842F480621A605A68120503D55A6887
:1022D00042F480525A60002209925A6909929A691E
:1022E0000992099AB6E7FFF76BFC08E6022A1A681A
:1022F00000F0D28022F480621A601A6842F4006210
:102300001A605A6822F480625A60F8E51126202586
:102310005968204621F4E0615960266384F83E2024
:1023200084F83D505BE6042805D0082803D010F55A
:10233000803F40F0848000222020596821F4E06131
:102340005960196841F400711960226384F83D00F6
:1023500094F83E302046402B84F83E207FF43FAE78
:10236000FFF72CFCCBE517F5803F77D0042F45D045
:10237000082F43D0BEF1120F40D0E26A022A1A6839
:1023800014BF22F4806242F480621A600022059237
:102390005A6905929A690592059A5BE700965A690F
:1023A00000929A690092009A56E501965A69019244
:1023B0009A690192019A1A6842F480721A60226D39
:1023C0000132226548E5E26A0026022A1A6859D0DD
:1023D00042F400621A6007965A6907929A69079256
:1023E000079A1A6822F480621A605A6816057FF507
:1023F00031AF5A6842F480525A602BE700261A68BF
:1024000022F480621A6006965A6906929A690692C8
:10241000069A1A6842F400721A601BE7226D012ABC
:102420004FD0226D022A7FF46AAD94F83D20222A13
:102430004ED094F83D20212A7FF461AD93E411261B
:1024400020215A68204622F4E0625A60266384F80C
:102450003E5084F83D10FFF7A5FB50E51A6822F4C2
:1024600080621A605A6812F4006219D000261A6855
:1024700022F480621A6003965A6903929A69039261
:10248000039AE7E642F480621A6008965A69089255
:102490009A690892089AA8E742F480621A6030E7C5
:1024A00004925A6904929A690492049A1A6842F44E
:1024B00000721A60CEE6D2B21A61236D0233236530
:1024C0001DE5A26CD2B21A61236D0133236516E5B6
:1024D0001A6842F480721A6011E500BFF8B503680B
:1024E00055495D6904460D425A6828D0D60526D55F
:1024F0006FF48070216C15F4813F41F0010121647B
:102500005861196841F40041196047D06FF40070B8
:10251000216C15F4823F41F002012164586123D1FE
:1025200015F4843F08D0D20506D56FF40061226C03
:1025300042F0080222645961236C5BB9F8BD15F4BE
:10254000813F0CD0D005E1D415F4823FE8D0236C54
:10255000002BF3D02046BDE8F840FFF737BB15F459
:10256000823FDDD0D105E7D594F83E00628D94F826
:102570003D10202892B2C9B2266B13D0226C42F0D3
:102580000402226494F83E20102A36D06FF4806250
:102590005A6115F4843FCFD02368C6E715F4823F13
:1025A000E2D1BDE7002AE9D101F0F702212A03D0E8
:1025B0002829E3D1212EE1D194F83D20E16AD2B25D
:1025C00004291FD008291DD0212ADFD12026002070
:1025D0006FF48061194FE762226384F83D6084F8EC
:1025E0003E005A68204622F4E0625A6059611A6837
:1025F0000A401A60FFF7DAFACBE71A6842F4007271
:102600001A60C3E7282ADFD16FF4806700212026F3
:102610000A4A2046E2625A6822F4E0625A605F6128
:102620001A683A401A60216384F83D6084F83E10CD
:10263000FFF7C2FAADE700BF000101000000FFFF95
:1026400038B50023406A0268456B1168846B21F439
:1026500080611160438590F83D106B6360294FF0F5
:102660002001636380F83D1080F83E3006D0136887
:1026700023F001031360FFF7A5FA38BD0364136864
:1026800023F001031360FFF79FFA38BD90F83D0077
:10269000704700BF002867D0F0B590F8293487B0A4
:1026A000054603F0FF02002B59D003232E4685F880
:1026B0002934286801F058FC56F810EB6C46374670
:1026C0000FCF0FC43B682F1D236097E80E007046A4
:1026D00001F042FC0021286801F050FC00212B464B
:1026E00008462A46012482F82810918601310F29D4
:1026F00082F8294082F82B009063D063106402F1C5
:102700002002F0D10022144683F828229A86013252
:102710000F2A83F8294283F82B42C3F83842C3F8C2
:102720003C42C3F8404203F12003EDD1EE460FCE08
:10273000D5F800C0AEE80F0033686046CEF8003030
:1027400097E80E0001F01CFC012385F8244028685E
:1027500085F8293401F02EFC002007B0F0BD80F888
:1027600028240CF055F9A0E7012070470122014B05
:102770001A60704720000E422DE9F041036882B0D4
:10278000DD07044630D5AD494A6802F00C02042A40
:1027900000F0FA804A6802F00C02082A00F0F0808B
:1027A0006368B3F5803F00F07481002B00F0048172
:1027B000B3F5A02F00F0A981A04B1A6822F4803253
:1027C0001A601A6822F480221A60FEF71DFD9B4DE4
:1027D000064605E0FEF718FD801B642800F217810D
:1027E0002B689A03F6D523689F0728D5934A51682A
:1027F00011F00C0F00F0A980516801F00C010829BC
:1028000000F09F802369002B00F0328101228C4B65
:102810008A4D1A60FEF7F8FC064605E0FEF7F4FC68
:10282000801B022800F2F3802B689807F6D52B68EE
:10283000626923F0F80343EAC2032B6023681A0796
:102840005DD45D073AD57D4BDA69D00000F1A680F2
:102850000125DA6942F08052DA61DB6903F08053C6
:102860000093009B774B1A68D10540F1BF80E36865
:10287000012B00F01481002B00F0CD80052B6F4B55
:102880001A6A00F04F8122F001021A621A6A22F0DD
:1028900004021A62FEF7B8FC684E804641F288379F
:1028A00006E0FEF7B1FCA0EB0800B84200F2AF80F2
:1028B000336A9B07F5D5002D40F0F780E369D3B16B
:1028C0005E4D6A6802F00C02082A45D0022B4FF0D8
:1028D00000025D4B00F0EF801A60FEF795FC2C467D
:1028E000054605E0FEF790FC401B022800F28F80B1
:1028F00023689B01F6D4002002B0BDE8F081A369F3
:10290000002B2DD00122514B4C4D1A60FEF77CFC60
:10291000064604E0FEF778FC801B022877D86B6A35
:102920009B07F7D54A4B4B4A1B68A2FB03235B0A64
:10293000019300BF019B5A1E0192002BF9D123681D
:102940007FE75268D6033FF55DAF3C4A12689507B2
:1029500026D52269012A23D0012002B0BDE8F081EA
:102960003A4A364D1360FEF74FFC064604E0FEF788
:102970004BFC801B02284AD86B6A9F07F7D4DEE71E
:102980004A68D0037FF50CAF2C4A126891037FF59B
:102990002BAF6268002A7FF427AFDDE7002561E7EF
:1029A000264960690A6822F0F80242EAC0020A6019
:1029B0001A077FF546AFA2E703F1804303F504331E
:1029C0001A681D4622F480321A601A6822F48022A6
:1029D0001A60FEF719FC064604E0FEF715FC801BA2
:1029E000642814D82B689B03F7D4FCE61A681E46AB
:1029F00042F480721A60FEF707FC07463368DA0576
:102A00003FF535AFFEF700FCC01B6428F6D9032064
:102A100002B0BDE8F08103F1804303F504331A6A84
:102A20001E4622F001021A621A6A41F2883822F028
:102A300004021A62FEF7E8FB074612E000100240AB
:102A40000000424200700040600042428004424266
:102A50003C000020D34D6210FEF7D6FBC01B404562
:102A6000D5D8336A9807F7D4002D3FF427AF1CE080
:102A7000344A354D1360FEF7C7FB064604E0FEF707
:102A8000C3FB801B0228C2D82B689907F7D42368A0
:102A9000D5E62D4A136843F48033136095E62A4A3D
:102AA000136A43F001031362F4E6274AD36923F063
:102AB0008053D36102E71A60FEF7A6FB064604E0E6
:102AC000FEF7A2FB801B0228A1D82B689901F7D43E
:102AD000226AB2F5803F2DD001251B4B606A5968F0
:102AE000024321F4741119480A435A6005601C46D8
:102AF000FEF78AFB054604E0FEF786FB401B022832
:102B000085D823689A01F7D5F5E603F18043A3F54C
:102B10003C331A6842F480221A601A6842F4803208
:102B20001A6052E642F004021A621A6A42F0010286
:102B30001A62AFE66B68A16823F400330B436B6045
:102B4000CAE700BF0000424200100240600042425B
:102B500070B50126022586B0154B0DF1180E0FCB6E
:102B60000EE90F00134C8DF804608DF80550636872
:102B700003F00C02082A0BD1C3F383427244DB0337
:102B800012F8102C07D40C4800FB02F006B070BD00
:102B90000A4806B070BD63680848C3F3404300FBB1
:102BA00002F0734413F8143CB0FBF3F006B070BDB0
:102BB000302301080010024000093D0000127A0095
:102BC0004E4A136803F007038B420BD2136823F0BD
:102BD00007030B431360136803F00703994201D006
:102BE0000120704703682DE9F0419A0706D5444C4F
:102BF0008568626822F0F0022A436260DF070646B9
:102C00000C4622D542683E4B012A1B6872D0022A2C
:102C10006AD0990729D53A4D41F288386B6823F07C
:102C2000030313436B60FEF7EFFA73680746012B4B
:102C300049D0022B05D151E0FEF7E6FAC01B404512
:102C400055D86B6813F00C0FF6D12C4A136803F0BB
:102C500007039C420CD2136823F00703234313603D
:102C6000136803F007039C4202D00120BDE8F08105
:102C700033685A0706D52249F0684A6822F4E062B0
:102C800002434A601B0707D51D4A3169536823F484
:102C9000605343EAC1035360FFF75AFF184B1949C9
:102CA0005B68194AC3F30313CB5C20FA03F30020DB
:102CB0001360FEF769FA0020BDE8F081FEF7A4FA80
:102CC000C01B404513D86B6803F00C03042BF5D1EF
:102CD000BBE7FEF799FAC01B404508D86B6803F0C4
:102CE0000C03082BF5D1B0E7980194D4BDE703207D
:102CF000BDE8F0819D038ED4B7E700BF00200240FD
:102D000000100240502301083C000020014B1868CD
:102D1000704700BF3C000020044B05495B68054A32
:102D2000C3F30223CB5C1068D84070470010024008
:102D3000602301083C000020044B05495B68054AFC
:102D4000C3F3C223CB5C1068D84070470010024028
:102D5000602301083C0000202DE9F0410446006892
:102D600082B0C30727D53B4BDA69D7003BD53A4B36
:102D700000251A68D60544D5364A136A13F4407301
:102D80000FD0616801F4407083420BD00127002608
:102D9000136A324923F440700F600E60D907106245
:102DA00046D461682B4A136A23F440730B431362C1
:102DB000002D38D1206883070DD410F0100007D003
:102DC0000020244AE168536823F480030B435360D6
:102DD00002B0BDE8F0811F4AA168536823F4404364
:102DE0000B435360E9E7DA69012542F08052DA616A
:102DF000DB6903F080530193019B174B1A68D605DA
:102E0000BAD41A681E4642F480721A60FEF7FCF9C2
:102E100007463368D805AFD4FEF7F6F9C01B64281F
:102E2000F7D90320D4E7D36923F08053D361C1E7F6
:102E30001646FEF7E9F941F28837804605E0FEF7CD
:102E4000E3F9A0EB0800B842EBD8336A9A07F6D54D
:102E5000A7E700BF0010024000700040400442425B
:102E600030B504460225012287B0354B8DF8055058
:102E7000022C06AD8DF804200FCB05E90F0042D0DF
:102E8000102C1CD0012C02D0002007B030BD40F225
:102E900002322C490B6A1A40B2F5817F3FD003F40D
:102EA0004073B3F5007F42D0B3F5407FECD10B689F
:102EB0004FF2244013F4003F08BF0020E5E7214B08
:102EC0005968186810F08070DFD006A8C1F38342FB
:102ED000024412F8100CCA0325D55B6806A9C3F397
:102EE00040430B44184A13F8143CB2FBF3F300FBC5
:102EF00003F0144B5B685B02C7D4144B4000A3FB88
:102F000000304008C1E7FFF717FF0E4B5B68C3F3C3
:102F1000813301335B00B0FBF3F007B030BD4FF4F9
:102F2000004007B030BD0A4B03FB00F0E1E74B6AFD
:102F300049F6404013F0020F08BF0020A5E700BF8C
:102F4000402301080010024000127A00ABAAAAAA8E
:102F500000093D00022930B400F5FA6420D9224B63
:102F600001EB4100C1EBC001A3FB01311F4D023257
:102F7000A5FB0435131903EB510303EB940303EB97
:102F8000D5131B48A3EB5513A0FB032030BC1A1A22
:102F900000EB52008008C0EBC000181AC0B27047A6
:102FA000114B01EB4105C1EBC501A3FB01310F4DF5
:102FB00000F2CF70A5FB00350432131903EB510169
:102FC00001EB900101EBD5110948A1EB5511A0FBD4
:102FD000013030BC0B1A00EB53008008C0EBC0007E
:102FE000081AC0B2704700BF398EE3381F85EB5115
:102FF0002549922438B50446FEF706F9054605E052
:10300000FEF702F9401BB0F57A7F09D823685A68A9
:103010009206F5D55A68002042F010025A6038BD79
:10302000032038BD026838B55368044623F0100306
:103030005360FEF7E9F8054605E0FEF7E5F8401BAA
:10304000B0F57A7F05D823685B689B06F5D500202C
:1030500038BD032038BD00BF38B50C460546FFF724
:10306000C9FF08B1012038BD2B68220CA4B29A61B7
:103070002846DC61FFF7D6FF003018BF012038BDBD
:1030800038B50C460546FFF7B5FF08B1012038BD3D
:103090002B68220CA4B21A6228465C62FFF7C2FFBA
:1030A000003018BF012038BDF8B500286DD00029C8
:1030B0006BD0037C012B34D00124022304744374AD
:1030C000002A31D14FF461624B780C78C3EB0313C3
:1030D0009B0002FB04338C7806461C442146FFF714
:1030E000BBFF0546002849D133685A6822F0050223
:1030F0005A601A6A596A89B241EA02414B1C0AD0E5
:103100008C4208D901F5A83101F5C0713046FFF7AE
:10311000B7FF00283CD10122002372743374284683
:10312000F8BD02252846F8BD4FF461664A780D784F
:10313000130903EB830402F00F0303EB44032C0990
:1031400004EB8407DBB205F00F048A78C3EB0313AA
:1031500004EB4704E4B29B0006FB0433140904EBC0
:10316000840102F00F0404EB4104E4B21C44214644
:103170000646FFF771FF05460028B5D0042200235C
:103180000125727433742846F8BD01252846F8BD20
:103190000423357473740125C4E700BF002800F0D0
:1031A000C380002900F0C080D0F800C0DCF80430F3
:1031B0005B0700F1B9802DE9F04FDCF81840DCF82E
:1031C0001C70DCF81830A6B29DB2AE4283B000F09D
:1031D0000081DCF81C70BFB247EA03470C464FF48D
:1031E0006161914B0546A3FB0703DB0A01FB1371E9
:1031F00016468E4A172BA2FB01024FEA5212C2EB6F
:103200000210A1EB80016270A17040F28F80884AA9
:10321000A2FB0312120902EB4202A3EBC2032370CA
:10322000DCF82020DCF824309BB243EA0243581C2F
:103230007ED09F427CD27F4A7F49A2FB07294FEA7A
:10324000194901FB197928464946A3EB0708FFF7FE
:1032500003FF002878D1B8F1FF3F00F0C08009EBF0
:1032600008012846FFF70CFF00286DD1714A6B7BDF
:10327000A2FB072EAF7B5FEA1E4E19463A46E87B5B
:103280001AD000224FF4C87B4FF4B56C012B5FD0ED
:103290000A2B62D90C2B64D11E2F5BD901329645C3
:1032A00000F1010040F2A68002270123511C8E4547
:1032B0000A46EBD8D9B2FAB2E8736973AA73FFF77A
:1032C00049FE287366B32378092B40F286800022DA
:1032D0000A3BDBB2092B02F10102F9D81201D1B28B
:1032E00062780B43092A237040F2828000230A3A55
:1032F000D2B2092A03F10103F9D81B01D9B2A3788C
:103300000A43092B62704FF0000207D90A3BDBB277
:10331000092B02F10102F9D81201D2B21343A370B2
:10332000002003B0BDE8F08F012070472370C9E78B
:10333000404B4149A3FB07231B0C01FB137128469B
:10334000FFF78AFE00284AD0012003B0BDE8F08FC5
:103350001E2F3AD80137511CA9E72CFA03F1C907EF
:10336000F6D423F0020104292DD009292BD04FF0E7
:10337000640A32491FFA80F9A1FB09814FEA51180A
:10338000C9090BFB11910AFB189889B202F1010AD5
:10339000022B01911FFA88F8514688D109F00303E6
:1033A00006E0F24507F101070AD252460AF1010A86
:1033B0001B2FF6D91C2F20D01D2F27D0D645F4D88F
:1033C000FAB2022178E71D2FC4D90133511C01271D
:1033D0006DE7BFB247EA044700E7002180E74FF0FE
:1033E000FF312846FFF74CFE00283FF43FAFABE724
:1033F000002184E7012211465EE73BB9B8F1000FD6
:1034000001D1019B13B9D6450AD9524601329645DE
:1034100003D9511C0227032349E7012203214BE76B
:103420001D22022148E700BFC5B3A2918988888880
:10343000ABAAAAAA07452EC2805101001F85EB51F5
:1034400000284DD000294BD0037C012B27D070B52C
:1034500002230124437404741ABBCB78C3734E78DF
:1034600046738A78827304460D4618463146FFF744
:1034700071FD2073287021688D69CA698869AEB2B0
:1034800083B29E4254D0CB699BB243EA00432D4A9B
:10349000934227D8012300206374207470BD02205A
:1034A0007047CA78130903EB830402F00F0303EBA0
:1034B0004403DBB2C3734A78160906EB860402F0B4
:1034C0000F0606EB4406F6B246738C78220902EB2F
:1034D000820504F00F0202EB4502D2B28273C2E70A
:1034E00001207047184DA2F60F62A5FB03152D0CA5
:1034F00002FB153520462946FFF7AEFD0646D8B932
:1035000023681A6A596A89B241EA02414B1CC1D048
:103510008D42BFD901F5A83101F5C0712046FFF7F2
:10352000AFFD0028B6D0042326746374012070BD5B
:1035300093B243EA0543AAE704220023627423748A
:10354000012070BD8F5F010007452EC200232DE9C9
:10355000F04182B0ADF804308DF80630002841D03B
:1035600000293FD090460E461A4601A90746FFF7AC
:1035700015FE002836D13B7B3370FD7BF5707C7BDC
:103580007470BB7BB370B8F1000F2CD0092D0246CC
:1035900007D90A3DEDB2092D02F10102F9D8120155
:1035A000D2B21543092CF5704FF0000207D90A3C3E
:1035B000E4B2092C02F10102F9D81201D2B214438B
:1035C000092B74704FF0000207D90A3BDBB2092BBC
:1035D00002F10102F9D81201D2B21343B37002B062
:1035E000BDE8F081012002B0BDE8F081C0B1026801
:1035F00038B55368044623F008035360FDF704FE12
:10360000054605E0FDF700FE401BB0F57A7F05D8C2
:1036100023685B681B07F5D5002038BD032038BD43
:103620000120704700284DD038B5437C044603F094
:10363000FF02002B3AD0022320466374FFF7D6FF27
:1036400018B104230120637438BD2046FFF7D2FC73
:103650000028F6D12268A068516821F00701516066
:1036600020B119490B6B23F001030B631649CB6A98
:1036700023F460730343CB6261684B1C1AD09068DB
:103680008DB220F00F0040EA11409060D3682046D0
:103690001B0C1B042B43D360FFF7C4FC0028D0D1C4
:1036A0000123E0736373A373637438BD02740BF07A
:1036B000D7F8C0E70120FFF7D3FB0028C1D022686C
:1036C000411EDCE701207047006C0040704700BFDE
:1036D000704700BF02681168CB0710D55168C90751
:1036E0000DD5536810B55B07044609D4FFF7EEFF0C
:1036F000012262746FF0010223685A6010BD7047A6
:10370000FFF7E6FF04226FF004012368596062743A
:103710006FF001025A6010BD704700BF03680020BF
:10372000DA6842F00102DA601A6842F001021A60B7
:10373000704700BF704700BF704700BF704700BFB1
:10374000704700BF036810B51A690446910702D597
:10375000DA68920762D41A69500702D5DA6851070D
:1037600049D41A69120702D5DA68100731D41A69E8
:10377000D20602D5DA68D00618D41A69D10702D564
:10378000DA68D2076BD41A69100602D5DA68110616
:103790006DD41A69520602D5DA68500657D41A69F0
:1037A000910602D5DA68920649D410BD6FF0100177
:1037B00008221961DB69204613F4407F227761D12A
:1037C000FFF7B8FF2046FFF7B9FF002223682277F2
:1037D000D3E76FF0080104221961DB6920469907DD
:1037E000227755D1FFF7A6FF2046FFF7A7FF00225B
:1037F00023682277BBE76FF00401022219619B69FD
:10380000204613F4407F22773FD1FFF793FF2046F5
:10381000FFF794FF002223682277A2E76FF00201EE
:10382000012219619B6902779B0728D1FFF782FF6C
:103830002046FFF783FF0022236822778BE76FF093
:1038400020022046BDE810401A6100F0A3B86FF0D6
:10385000400220461A61FFF773FF23689FE76FF06D
:10386000010220461A6100F0BDFF23688BE76FF06C
:10387000800220461A6100F08FF8236889E7FFF77D
:103880005BFFD8E7FFF758FF9FE7FFF755FFC1E75A
:10389000FFF752FFABE700BF1D4A0368904221D0FB
:1038A000B0F1804F30B414D0A2F59432904210D0D1
:1038B00002F5806290420CD04D6923F080032B43C7
:1038C0008C680A6803600123C462826230BC436171
:1038D00070474A6823F070031343CA6823F44073A7
:1038E0001343E9E74A6823F070031343CA6823F4DB
:1038F000407313434A6923F08003134303608B68CA
:10390000C3620B6883620B690363012343617047E1
:10391000002C0140B8B190F83D3010B503F0FF0223
:1039200004465BB10223206884F83D30211DFFF777
:10393000B3FF0123002084F83D3010BD80F83C2007
:10394000FFF7EAFEEEE70120704700BF00B390F8F2
:103950003D3070B503F0FF0204460D469BB10223D3
:10396000012684F83D302068211DFFF795FF23686C
:1039700000201A6822F008021A601A682A431A60A6
:1039800084F83D6070BD80F83C200AF08FFFE6E7C8
:1039900001207047704700BF704700BF2DE9F04716
:1039A00082460468C1682269836822F440520A434F
:1039B0002261E2680069DAF8141022F4B05203437D
:1039C00022F00C020B431343E3606369DAF818102A
:1039D000514A23F440730B439442636159D0FFF77B
:1039E0009BF9DAF8043000EB800000EB80009B00CC
:1039F000B0FBF3F3494F4FF06408A7FB03235B09C7
:103A00001D01FFF789F9DAF8042000EB800093002C
:103A100000EB8000B0FBF3F6FFF77EF9DAF8042044
:103A200000EB8000930000EB8000B0FBF3F3A7FBFA
:103A300003235B0908FB13631B013233A7FB03233A
:103A40005B0903F0F006FFF767F9DAF8042000EBF2
:103A5000800000EB80009300B0FBF3F9FFF75CF906
:103A6000DAF8043000EB800000EB80009B00B0FB34
:103A7000F3F3A7FB03235B0908FB13931B0132330A
:103A8000A7FB0323C3F3431333432B44A360BDE8D5
:103A9000F087FFF751F9DAF8043000EB800000EB13
:103AA00080009B00B0FBF3F31C4F4FF06408A7FBB2
:103AB00003235B091D01FFF73FF9DAF8042000EB4F
:103AC0008000930000EB8000B0FBF3F6FFF734F9C1
:103AD000DAF8042000EB8000930000EB8000B0FBDC
:103AE000F3F3A7FB03235B0908FB13631B013233CA
:103AF000A7FB03235B0903F0F006FFF71DF9DAF8D3
:103B0000042000EB8000930000EB8000B0FBF3F991
:103B1000FFF712F9A4E700BF003801401F85EB5101
:103B20002DE9F04107460E4690461D463C6801E0EF
:103B30006B1C06D1206836EA0003F9D10020BDE8ED
:103B4000F08135B1FDF760FBA0EB08008542EDD2B6
:103B50003C6820220021E368032023F4D073E36053
:103B6000636923F00103636187F8392087F838100F
:103B700087F83A20BDE8F08160B338B590F8393065
:103B8000044603F0FF0203B32423226884F839308B
:103B9000D368204623F40053D360FFF7FFFE0025CF
:103BA0002021236828461A6922F490421A615A6932
:103BB00022F02A025A61DA6842F40052DA60E563C0
:103BC00084F8391084F83A1038BD80F838200AF0AB
:103BD000BDFED9E701207047F0B5044690F83900E2
:103BE00083B0202802D0022003B0F0BD0D4600298A
:103BF00039D0002A37D01E4694F83830012BF2D045
:103C0000002001212123E06384F8381084F8393042
:103C10000192FDF7F9FA0746019AA284E284E38C47
:103C20009BB2BBB1E38CA268013B9BB2B2F5805F53
:103C3000E3843A4633464FF08001204615D0FFF723
:103C40006FFF70B923682A7801355A60E38C9BB204
:103C5000002BE7D133463A4640212046FFF760FF6C
:103C600090B10320C0E70120BEE7FFF759FF00280D
:103C7000F7D12B8821682269C3F308034B600AB986
:103C80000235CCE70135CAE7202384F8380084F8F0
:103C90003930A9E790F83930202B01D00220704745
:103CA000B9B1B2B190F83830012BF7D030B400235D
:103CB00021240568C284C36380F83940EC6801623E
:103CC00044F08004828480F838301846EC6030BCC0
:103CD00070470120704700BF90F83A30202B01D088
:103CE00002207047F9B1F2B190F83830012BF7D0CB
:103CF00030B4002322250468C285C36380F83A509B
:103D0000E568828545F4807580F838308162E56029
:103D10006269184642F001026261E36843F02003E1
:103D2000E36030BC70470120704700BF8368B3F583
:103D3000805F2CD0036973B10368826A5B68511C91
:103D400003F07F0381621370C38D013B9BB2C38577
:103D500043B1002070470268836A5268591C81622F
:103D60001A70F1E710B520240268D16821F0200113
:103D7000D160D16821F48071D160516921F00101D5
:103D8000516180F83A4000F02BFB002010BD026921
:103D9000836A3AB902685268C2F3080223F8022B18
:103DA0008362D1E702685268D2B223F8012B8362A2
:103DB000CAE700BF704700BF036870B51A680446C1
:103DC0001607DD6859694AD011F0010153D0D607B2
:103DD00005D5E80503D5E06B40F00100E063560728
:103DE0007BD5002900F08580E16B900741F002014E
:103DF000E16377D5E16B41F00401E163110773D40E
:103E0000E16B00292AD0910605D5AA0603D594F8BE
:103E10003A20222A7DD05D69E16B0E0702D415F0AD
:103E200040057BD02021DA6822F49072DA605A696A
:103E300022F001025A6184F83A105A6955065FD59A
:103E40005A69616B22F040025A61002958D03C4BFC
:103E500008464B63FDF76EFA002855D170BD9606F3
:103E60000CD5A9060AD590F83A30222BF6D1BDE838
:103E70007040FFF75BBF15F4907FA8D110060ED4F9
:103E80005606EBD56D06E9D52021DA68204622F0EA
:103E90004002DA6084F8391000F09CFA70BD2906FF
:103EA000EED594F83920212AD8D1A268B2F5805FE6
:103EB000226A38D0511C216212785A60E28C013A91
:103EC00092B2E284002AC9D1DA6822F08002DA6074
:103ED000DA6842F04002DA6070BD96070BD500291F
:103EE00088D18DE711078BD5E16B41F00801E163C3
:103EF00086E7900784D4100782D5002980D0F3E7A5
:103F00002046FFF757FF70BD606BBDE87040436B04
:103F100018472046FFF70AFF23687CE72046FFF793
:103F200049FFE56370BD11882069C1F3080159603C
:103F300010B902322262C1E701322262BEE700BF3D
:103F4000453F0008002208B5436ADA851846DA843E
:103F5000FFF730FF08BD00BF84B001A880E80E0065
:103F600004B00020704700BF44F2FF230246B0F8BF
:103F7000401000200B40A2F84030704700207047EE
:103F800084B070B4044601250020A4F84050A4F881
:103F90004000A4F84400A4F85000B4F8405004AE27
:103FA000ADB245F43F45A4F8405086E80E0070BC21
:103FB00004B0704700207047F0B507460D468FB03B
:103FC0001C4C01AE0FCC0FC6236801A93370102220
:103FD0003846194FFFF75EFE40F6C410FDF71AF998
:103FE0000FCF3F680DF1040EAEE80F0001A91022BB
:103FF00037702846FFF74EFE4FF47A706424FDF7C1
:1040000009F90E4E14342246314601A80BF024FB68
:1040100001A982B22846FFF73DFE3220FDF7FAF8EB
:10402000B4F5BE7FEED14FF49670FDF7F3F80FB004
:10403000F0BD00BF682301087C230108902301081C
:1040400010B5334CA378032B43D8DFE803F02435B5
:10405000190200224FF400512E48FDF7BFFA0B223F
:104060002D4B00211846DA60FFF770FC002842D182
:104070000023012129482A4AA3700370117010BD42
:104080004FF480712748FDF7A3FA002838D0A378B1
:104090000133A37010BD002280212348FDF79EFA52
:1040A00000224FF400511B48FDF798FA0022A37834
:1040B000A2800133A37010BD40F2B533A2889A42AA
:1040C0000ED840211848FDF78DFAA3880133A3804C
:1040D00010BD002001221149114B08701A7010BD4B
:1040E000012280211048FDF779FA0022A378E280AE
:1040F0000133A37010BD69210C4800F08FFFB7E7B2
:1041000040210948FDF76EFAE3880133E38010BDD2
:104110002C02002000100140840400203402002002
:104120003C02002000080140000C0140AC230108C3
:104130002DE9F04F044685B0242003918DE80C0052
:10414000BDF838B09DF83CA09DF840909DF84480A3
:104150009DF84870BDF84C60BDF850500AF03CFD29
:104160000290D8B103990BF09BFA0020029BBDF896
:10417000001022685982BDF80410A3F816B0998285
:1041800083F818A083F8199083F81A80DF769E834D
:10419000DD831A62236005B0BDE8F08FFF2005B013
:1041A000BDE8F08F2DE9F04F87B006460568084658
:1041B00011469DF85420BDF840B00092BDF858203B
:1041C000BDF844A00192BDF85C209DF848909DF890
:1041D0004C809DF85070029245B110B90BE060B16F
:1041E00025462C6A0138C0B2002CF8D170B3FD20EE
:1041F00007B0BDE8F08F2C460546242005930491B6
:104200000AF0EAFC0390E0B104990BF049FA039A32
:10421000059BA2F814B053829DF80030A2F816A0B6
:10422000D376BDF8043082F818909383BDF8083037
:1042300082F819809776D383146225B12A62002010
:10424000D6E7FF20D4E732602846D1E70446D4E71A
:10425000026892B108B511B911E039B11A46136A72
:104260000139C9B2002BF8D1FD2008BD196A1162CD
:1042700018460AF0B9FC002008BDFD20704713461F
:10428000126A0260F4E700BF00282AD038B51D4644
:10429000044631B1246A0139C9B2002CF9D1FD209C
:1042A00038BD104621460BF0FBF9638A049A2B8037
:1042B000A38A00201380E38A059A1380237E069A3E
:1042C0001370637E079A1370A37E089A1370E37EBF
:1042D000099A1370A38B0A9A1380E38B0B9A1380AD
:1042E00038BDFD20704700BF38B10023006A01339C
:1042F0009BB20028FAD1184670470346FBE700BF7F
:1043000001282DE9F04118D040282FD0B0F5807F4A
:1043100001D0BDE8F0810F26254D264C264F0FCC4D
:1043200028606960AA60EB60294632467E8064237B
:10433000BDE8F0412148FFF74FBC01462048FDF79A
:1043400047F91D4E10B93378012B29D01D4B1E495A
:104350001A8817480BF080F984B2224674806423CF
:10436000BDE8F04112491548FFF736BC0146174831
:10437000FDF72EF9104E10B93378012B14D00F270A
:104380000B4D134C77800FCC28606960AA60EB60FE
:1043900029463A46BDE8F04164230848FFF71CBCB3
:1043A00030700AF047F9D1E730700AF027F8E6E7F5
:1043B000C4050020E8230108340200206C05002019
:1043C000000C014032020020BC230108000801401B
:1043D000D82301080122014B1A71704734020020D2
:1043E000F8B5854A0368934200F0BD80834C844A47
:1043F000934259D0834D2B78012B7FD0E37A012B48
:104400000BD0012280498148FFF766FCBDE8F840E7
:1044100001227F497F48FFF75FBC6379023B3B2B5A
:104420003FD8DFE813F0B200BD00C000C300C600F3
:10443000D100D400D700DA00DD00E0003C003E00EF
:10444000E300E6003E003E003E003E003E003E002F
:104450003E003E003E003E003E003E003E003E006C
:104460003E003E003E003E003E003E003E003E005C
:104470003E003E003E003E003E003E003E003E004C
:104480003E003E003E003E003E003E003E003E003C
:104490003E003E003E003E003E003E00090105F0A9
:1044A00011F80023E372ACE75B4E337823B95B4A23
:1044B000137053709370D370554A12780A2A17D02C
:1044C000542A97D0A2F15801012993D9202A00F04B
:1044D0000481A17A012900F05C8102298AD14F4D23
:1044E0005F1C29464E48EA5437700BF0D9F881E733
:1044F00000230122434DA37233702A7049480AF009
:1045000043FB494B188046480AF03EFB6379474A13
:10451000023B10803B2B23D8DFE803F0DAD5D0CB69
:10452000C6C1BCB7B2ADA81E22A39E22222222225F
:10453000222222222222222222222222222222225B
:10454000222222222222222222222222222222224B
:10455000222222222222229904F0ECFF05F020F8E8
:1045600000232B704AE7054627480AF00DFB082870
:1045700000F20D81DFE810F00401F700E300DC0039
:10458000D700D000C900BC00B700294D0022294641
:104590002848FEF703FE6978287801F021FA80E7C1
:1045A00006F000F87DE706F091F87AE708F098FB4E
:1045B00077E71F4D002229461E48FEF7EFFD697878
:1045C000287809F0BDFB6CE709F018FF69E709F0EE
:1045D000A3FF66E70AF02EF863E702F0C3F860E78E
:1045E00003F0E2FA5DE704F017FF5AE704F0E4FF96
:1045F00057E705F0CDF854E70038014034020020B9
:1046000000440040800400201A0500206C050020B2
:104610001C05002044060020810400203C060020E8
:10462000680500202005002018050020C005002096
:1046300040060020AC0500205E4D002229465E4861
:10464000FEF7ACFD6978287809F0AEFD29E709F09E
:1046500093FE09F0C7FE83E705F070FA05F0E4FB6E
:104660007EE704F0FBFF05F051F879E704F02CF940
:1046700004F010FF74E703F00FFC03F065FE6FE732
:1046800002F040F902F010FE6AE70AF023F80AF09F
:1046900057F865E709F08CFF09F0C0FF60E709F003
:1046A000F9FE09F02DFF5BE709F034FD09F06CFD20
:1046B00056E708F0B3FC09F031F851E706F076F957
:1046C00007F0EEFF4CE705F005FD05F0E7FF47E7D3
:1046D00001F048FB01F072FF42E70022A37A32703A
:1046E0000133A37286E60523344C63722B687EE6A1
:1046F000132440F2CF22324B00211846DC605A606E
:10470000FFF724F9002842D0FEE720212D48FCF7CE
:1047100069FF2A4C2B686AE610212A48FCF762FFE1
:10472000264C2B6863E60023244C23722B685EE63C
:10473000224C2378012BD9D1E3712B6857E6224A0A
:10474000224B12881B889A422CD21C4C6379022B74
:10475000CCD1012300221E481E49A2710270237091
:104760000B702B6843E6012202211B48FCF736FF41
:10477000012280211348FCF731FF104C2B6836E6EC
:10478000002202211448FCF729FF0022F1E72B68E0
:104790002CE6124D5F1C29461148EA5437700AF086
:1047A0007FFF27E60023054C237009F0B5FE2B6838
:1047B0001DE600BF40060020AC05002034020020AA
:1047C0002405002000080140120B0020EC0A002004
:1047D000540200205E020020000C01403C06002034
:1047E000200500202DE9F041894A036882B09342F8
:1047F000044637D0874A93420ED0874A934202D06C
:1048000002B0BDE8F081854B1B78002BF8D002B0D8
:10481000BDE8F04100F030BC804D2B7A002B74D005
:10482000AB7B13B12B78002B7BD1EB7BABB12A8A0E
:10483000182A6DD9012B60D1794B1A88193292B29E
:104840001A80784978480AF007FF86B23246642316
:10485000754976486E80FFF7BFF90022EA73236836
:104860002A82CAE76D4D002271497248FEF796FC14
:104870002B78CBB1704AAB791278B3EB420F53D09F
:104880006E49097881B10133DEB233460091664842
:104890006B49AE710AF0E0FE86B23246642362498B
:1048A00062486E80FFF798F9614EB378ABB96B79C7
:1048B000022B00F09D800A2B42D0B17873783278B9
:1048C000594800915F490AF0C7FE86B23246642318
:1048D000554956486E80FFF77FF92B7B3BB101337A
:1048E000DBB2032B2B7302D17E22574B1A706B7BEA
:1048F0000BB100236B7323687CE7022B484B1A88AB
:104900009FD1193A92B21A809BE7FFF799FB87E78C
:1049100040214E48FCF766FE2A8A236801322A822B
:104920006BE701F01DF880E7444E3378002BBBD0D5
:104930000027474900973B463B48AF713770A9E7CE
:104940004FF0180C384FDFF81CE1A5F802C0BEE8A4
:104950000F0038607960BEE803009EF800E0BA609E
:1049600087F818E06246FB60386179616423394654
:104970003848FFF731F93278384637490AF06CFE8B
:104980001FFA80FE7246394664233248A5F802E0D9
:10499000FFF722F94FF01A0CDFF8CCE0A5F802C0BF
:1049A000BEE80F0038607960BEE80300BEF8008002
:1049B0009EF802E0BA6087F81AE06246FB60386150
:1049C000796164233946A7F818802248FFF704F973
:1049D0007278384621490AF03FFE1FFA80FE72467F
:1049E000394664231B48A5F802E0FFF7F5F864E7B1
:1049F000737832781A490C480AF02EFE87B2642385
:104A00003A46094913486F80FFF7E6F86B7952E799
:104A1000002C014000080040000400403402002047
:104A20006602002008250108C40500206C0500204E
:104A300040060020AC050020EC0B002055020020B1
:104A400024240108F424010808000020000C01407F
:104A5000F823010844060020A8240108DC240108EA
:104A6000542401088C240108C024010870B54FF4B7
:104A7000803201230926002502244FF4E01194B06E
:104A80000AA80A960B9212920C950E931093119409
:104A90001391FDF771FE00B1FEE703464FF480620B
:104AA0000F25214605A807930993069405950892BA
:104AB000FEF786F8034600B1FEE711214FF40072BD
:104AC00001A8049301910292FEF746F9044600B151
:104AD000FEE7FEF71BF9084BA3FB00308009FCF74B
:104AE000FFFB0420FCF714FC224621464FF0FF3068
:104AF000FCF7B4FB14B070BDD34D62102DE9F04F3C
:104B000093B0FCF763FBFFF7B1FF0022914B4FF42A
:104B1000005198690DF1380840F0100098619C69C7
:104B20008D4804F010040A940A9C9D69012445F004
:104B300020059D6115469E6906F020060B960B9E8A
:104B40009F69022647F004079F619F6907F00407E9
:104B50000C970C9F9F6947F008079F619B697F4FE7
:104B600003F008030D930D9BFCF738FD2A4648F22D
:104B7000B0017B48FCF732FD2A4640F2F231794819
:104B8000FCF72CFD4FF40053414673480E930F94ED
:104B900010951196FCF71AFC48F2B0034146704894
:104BA0000E930F9410951196FCF710FC4FF4A07320
:104BB00041466B480E930F971094FCF707FC414653
:104BC00068480F970E941094FCF700FC40F2F23303
:104BD000414664480E930F9410951196FCF7F6FB2E
:104BE0002A4629460620FCF739FB0620FCF76CFB19
:104BF0002A4629461720FCF731FB1720FCF764FBF7
:104C00004FF0FF314FF48073574F584A3846796060
:104C10003A60BB60FEF706FD00B1FEE703462246A0
:104C200009A938468DF824308DF825308DF82630C6
:104C3000FEF73AFA00B1FEE711254FF0150E1623E4
:104C40002246384641468DF838608DF839508DF847
:104C50003AE08DF83B30FEF7F3FB00B1FEE74FF48E
:104C600016570C24424B434A9860D86018619861EB
:104C7000D86118461A605F605C61FEF77DFF0246EE
:104C800000B1FEE7082003213B4BDFF81CE1586030
:104C900018469A61DA611A629E60C3F800E0D96032
:104CA000FDF7F8FC024600B1FEE7344B34491846E4
:104CB0009A60DA601A619A61DA615F605C6119601A
:104CC000FEF75AFF024600B1FEE742F20F7040F6CF
:104CD0000F642C4B2C4E1146586018469A601A618E
:104CE0005A611E60DC60FEF731FE024600B1FEE74D
:104CF00040F2E734254B264E014618469A601A6169
:104D00005C60DD601E60FEF721FE024600B1FEE73A
:104D10008F26204B204D014618469A601A61DE60AE
:104D20005C601D60FEF712FE024600B1FEE74FF424
:104D300080451A4B1A4C1B4918461D619A60DA606F
:104D40005A619A61DA611A621C605960FCF792FD3F
:104D500060B3FEE700100240001001400000311077
:104D600000080140000C0140AC0500200028004074
:104D70004406002000440040840600206C0500200A
:104D800000380140FC050020002C014024050020D3
:104D9000000400408404002000080040C4040020F7
:104DA00000580040A0860100005C004001228449B8
:104DB0008448FEF791FF012283498448FEF78CFF67
:104DC0008348FEF7A7FD8248FEF7A8FC8148FEF75E
:104DD000A1FD8048FEF7A2FC7D48FEF79FFC7E4CBB
:104DE0007E48FEF797FD7D48FEF798FC214600229D
:104DF0007B48FEF7D3F978227A497B480AF02CFCED
:104E00007A4D86B23246642377496E486E80FEF74B
:104E1000E3FE0026FA214FF44873322206910593EF
:104E20000092334640F2E732714905F114000496CE
:104E3000039602960196FFF77BF901234FF02D0EA2
:104E4000052702204FF07E5C6A4A604913706A4A67
:104E500068721370694B5B48A3F800E0684BDFF899
:104E6000B0A11F70674B684FC3F800C0FFF7A4F8EC
:104E70006178207800F0B4FD6B7A012B08BF6E7268
:104E80006B7A022B08BF6E726B7A032B08BF6E72AF
:104E900095F809B05FFA8BFBBBF1040FECD101244C
:104EA0004FF0FF39534B22468DE81802A0212346CC
:104EB00038466E72FCF76CFD0520FCF7ABF94E4BE3
:104EC0000222A021CDF80890009301942346384691
:104ED000FCF75EFD0520FCF79DF9484B0322B3F873
:104EE00000E0A0214FEA1E2E2346CDF80890019441
:104EF000CDF800803846CDF838E0FCF749FD0520B4
:104F0000FCF788F93D4B5A4693F800E00FABA0211F
:104F1000CDF808900093019423463846CDF83CE044
:104F2000FCF736FD0520FCF775F9354B0522A0216D
:104F3000CDF808900093019423463846FCF728FDED
:104F40000520FCF767F92F4B4FF000091868FBF7B5
:104F500079FA0B4602462D492D480AF07DFB2D4B70
:104F6000C3F800A02A4B9A464B4409F106028DE88B
:104F7000180092B20123A0213846FCF7A9FD80B9A0
:104F80003846FDF783FB2028FAD109F101090520F5
:104F9000FCF740F9B9F1050F3FF46EAF1D4B1B68EC
:104FA000E2E778221C4910480AF056FB84B22246F8
:104FB00064230D4903486C80FEF70EFEFEE700BF38
:104FC0001A0500206C0500201C0500204406002066
:104FD000FC05002024050020400600208404002059
:104FE000AC05002024250108C4050020340200205F
:104FF00044250108140C00201C0C0020160C002075
:10500000EC0B0020180C0020C404002050250108DF
:10501000000C0020F805002058250108FEE700BF1D
:1050200010B5074C002220464FF48071FCF7D6FAE9
:10503000204600222021FCF7D1FA012010BD00BF3C
:10504000000C0140012812D0022801D00020704736
:1050500010B5044601224FF480710648FCF7BEFAF1
:10506000012220210348FCF7B9FA204610BDFFF7C2
:10507000D7BF00BF000C01402DE9F041A34C88B020
:105080002378122B00F26E83DFE813F032006A00FF
:105090008A00E5016A018701BD00DF00EA00140112
:1050A0009A003D03FE02450345028D029502BE02B1
:1050B00013006288A3889A42C0F07A826578002D36
:1050C00040F04D83924E3378002B40F07583914B26
:1050D0005978187808F034FE002501224FF4005169
:1050E0008D486580FCF77AFA8C4B25701D7064E062
:1050F00001218B48FCF76CFA002800F05683627897
:10510000002A5AD1834D87482946FEF747F8864A38
:10511000864B12881B889A4204D27D4B1E78002E43
:1051200000F077830022824B628018688149FBF788
:10513000FDFD814D06462888FBF7A4FD014630465B
:10514000FBF7F4FD06466888FBF79CFD01463046F8
:10515000FBF7A0FEFBF7B0FF1223A08023702CE02A
:105160006288A3889A42C0F0F382002502232A466F
:1051700080216B4823706580FCF730FA6F4B7048D4
:105180001A787049704B30F8124031F812201846E6
:105190002946DC605A60FEF7D9FB70B1752183E0C7
:1051A0006A4B62881B889A4280F0E18240215C4809
:1051B000FCF718FA63880133638008B0BDE8F0811A
:1051C0006288A3889A42C0F0F381002500228021E2
:1051D0005348FCF703FA594B594E197859485A4A23
:1051E000237836F8117030F81160013310462946E3
:1051F000D760566023706580FEF7A8FB0028DCD0DE
:1052000040F2271150E06288A3889A42C0F0A08241
:105210000025002280214248FCF7E0F9474B484E28
:1052200019784848484A237836F8117030F81160E8
:10523000013310462946D760566023706580FEF71B
:1052400085FB0028B9D0DA212EE040F2B533628820
:105250009A42ABD9012280213148FCF7BFF99CE189
:105260004FF480713A48FCF7B3F9002800F09682B9
:10527000384B1B78002B40F0B3821123237000229F
:10528000354B2F4D19782F482F4B35F8116030F8DA
:10529000115018461146DE605D606280FEF756FBD5
:1052A00000288AD040F203112C4808B0BDE8F04134
:1052B000FFF7B4BE6288A3889A42C0F056820122EA
:1052C00010212348FCF78AF9224B1B4D1878FBF775
:1052D000D9FC174B1968FBF729FD06462888FBF710
:1052E000D1FC01463046FBF721FD06466888FBF7F6
:1052F000C9FC01463046FBF7CDFDFBF7DDFE002281
:105300002378A08001332370628056E75402002086
:105310003B02002040060020001001403402002023
:10532000000C0140AC050020120B0020EC0A00200C
:10533000180C00200000A0420A0000201C0C0020D5
:10534000100000202400002024050020F80A00207E
:1053500000080140EE0A0020140C0020742501080A
:105360006288A3889A42C0F0F38100220525974BFA
:10537000974E19789748984B36F8117030F81160AD
:1053800018461146DF605E6062802570FEF7DEFA27
:1053900000283FF412AFB32186E74FF480718F48A5
:1053A000FCF716F9002800F0F9818D4DFFF738FE63
:1053B0008C4B2888D3F80080FBF764FC074668888C
:1053C000FBF760FC0646884B1878FBF75BFC414610
:1053D000FBF7ACFC3946FBF7A9FC3146FBF75AFD5D
:1053E000FBF76AFE814B05461888FBF74BFC4146EC
:1053F000FBF79CFC3946FBF799FC3146FBF74AFD6D
:10540000FBF75AFE7A4B05441878FBF73BFC414604
:10541000FBF78CFC3946FBF789FC3146FBF73AFD7C
:10542000FBF74AFE734B6B491A78694E6A4B36F8A4
:10543000126031F812202D1A00211846A580DE6076
:105440005A60FEF783FA002800F0A780C4216A485A
:10545000FFF7E4FDA1E0694B62881B889A42FFF4E4
:10546000A5AE5F4D5F4B28881F68FBF70BFC064617
:105470006888FBF707FC05465B4B1878FBF702FCD6
:105480003946FBF753FC3146FBF750FC2946FBF746
:1054900001FDFBF711FE80B2A080002840F0998149
:1054A000524B1888FBF7EEFB3946FBF73FFC3146C1
:1054B000FBF73CFC2946FBF7EDFCFBF7FDFD4C4BF5
:1054C00080461878FBF7DEFB3946FBF72FFC3146A8
:1054D000FBF72CFC2946FBF7DDFCFBF7EDFD052374
:1054E000A8EB0000A0802370424B39481A78394954
:1054F000394B30F8125031F8122018460021DD6087
:105500005A60FEF723FA002800F0FA80A0213A48FA
:10551000FFF784FDF4E04FF480713048FCF758F851
:10552000002800F03B812E4D2888FBF7ABFB074697
:105530006888FBF7A7FB0646314B1878FBF7A2FB00
:10554000284B1968FBF7F2FB3946FBF7EFFB3146B6
:10555000FBF7A0FCFBF7B0FD2A4905463846FBF7F0
:10556000E5FB3146FBF796FCFBF7A6FD214B184EF9
:105570001A781849184B36F8127031F81260054441
:1055800000211846A580DF605E60FEF7DFF920B1DC
:1055900040F275111848FFF741FD00222378628020
:1055A0000133237009E66288A3889A4280F0EB8079
:1055B0004FF40071FBE56288A3889A42C0F0D58061
:1055C0000022112362802370F7E500BF1C0C00202D
:1055D00010000020240000202405002000080140C5
:1055E0000A000020180C0020800B0020100B002067
:1055F0006E0B0020140C0020742501086C0B002099
:105600006F0B002000007041A34DA44E2B88317811
:105610000133A3482B80A34FFEF71AFE3178288868
:10562000A14BA24ADFF8BCC2DFF8D8E2A04E1B882B
:105630001288BCF800C09EF800E03F7836780090F1
:105640009C48007807929C4ACDF818C012880290B6
:105650000192CDF814E0994A049703969048FEF71A
:10566000A1FD974B29881A88B1FBF2F302FB1313B3
:105670009BB2002B73D1934B1B78002B6FD0012270
:1056800012236270237098E5884B62881B889A42C7
:10569000FFF48CAD834B8C4D1878FBF7F3FA8B4BF2
:1056A0001968FBF743FB06462888FBF7EBFA01462F
:1056B0003046FBF73BFB06466888FBF7E3FA0146FA
:1056C0003046FBF7E7FBFBF7F7FC80B2A080002831
:1056D00079D10E2323707E4B7E481A787E497F4B0A
:1056E00030F8125031F8122018460021DD605A605F
:1056F000FEF72CF920B140F251117948FFF78EFCEA
:105700000023638059E5774B62881B889A42FFF437
:105710004DAD0C252CE06288A3889A4218D3002254
:105720000E25714B6B4E19786B486C4B36F8117027
:1057300030F8116018461146DF605E6062802570A7
:10574000FEF704F900283FF438AD4FF4B271ABE531
:105750004FF400716548FBF745FF102127E513233F
:1057600023702AE50023237027E510211FE5032578
:105770000023012280215D482570638008B0BDE8C8
:10578000F041FBF72BBF504D102100225848FBF78A
:1057900025FF2888FBF776FA5649A4E540215348AF
:1057A00008B0BDE8F041FBF71DBF534B187008B0BF
:1057B000BDE8F04108F03EBF504B5978187808F02A
:1057C000F3FC357088E4FFF72BFC2378013323705A
:1057D00081E70220FFF736FC23780133237083E64C
:1057E000394D0220FFF72EFC2888FBF74BFA414980
:1057F000FBF79CFA06466888FBF744FA01463046F8
:10580000FBF748FBFBF758FC2378A080013323709B
:1058100035E56978287808F093FAFFF701FC2C4BFE
:105820002C481A782C492D4B30F8125031F81220A0
:1058300018463146DD605A60FEF788F8002840F0CF
:10584000828000222E484FF40051FBF7C7FE002251
:10585000184B62801878002856D0FBF713FA1B4BC0
:10586000194D1968FBF762FA06462888FBF70AFA11
:1058700001463046FBF75AFA06466888FBF702FAFB
:1058800001463046FBF706FBFBF716FC2378A080A9
:105890000133237091E400BF120B0020500200205E
:1058A000480200206F0B0020EC0A00206C0B002047
:1058B000800B00206E0B0020100B0020300B00200E
:1058C000160C0020EC0B00200A000020180C002011
:1058D000140C0020100000202400002024050020CB
:1058E00074250108F80A00201C0C0020000C01405F
:1058F000000801400000A0403402002040060020C3
:1059000000100140EE0A0020114B124D1888FBF7E1
:10591000B9F9114B1968FBF709FA06462888FBF715
:10592000B1F901463046FBF701FA06466888FBF7F5
:10593000A9F901463046FBF7ADFAFBF7BDFB06239C
:10594000A080237039E455210448FFF767FB78E70E
:10595000100B00200A000020180C002074250108FC
:1059600010B51C4CA279012A17D00BD3022A05D1FD
:10597000238933BB1849A3710A7010BD0022164B4E
:105980001A7010BD002280211448FBF727FE002268
:10599000A37922810133A37110BD2389B3F5617FFF
:1059A00007D240210D48FBF71DFE238901332381D7
:1059B00010BD80210948FBF711FEA3790133A371C3
:1059C00010BD40210548FBF70DFE2389013B2381D3
:1059D00010BD00BF5402002042020020000C014014
:1059E0002DE9F04F4FF0100EB74FB84CB84EB94DEF
:1059F000804689460FCF3F7889B020606160A26001
:105A0000E36021467246304664232774A5F800E01F
:105A1000FEF7E2F84FF0140EAF4FA5F800E00FCFFD
:105A2000206038683F796160A260E360724620615F
:105A300021466423A9482775FEF7CEF84B46424617
:105A40002046A74909F008FE87B23A46214630466B
:105A50004FF47A732F80FEF7BFF8A24BA24F19784C
:105A6000A24BDFF8E0A218680797A14FDFF8D8B281
:105A70000697A04FDFF8D48205979F4FDFF8D092AA
:105A800004979E4F534603979D4F5A460297CDF871
:105A900004809C4FCDF80090FEF7F6FB59469A48DB
:105AA00009F0FEFDBAF800203946984809F0D4FD07
:105AB000B9F800203946964809F0CEFDB8F8002024
:105AC0003946944809F0C8FDDFF888B28C4B394656
:105AD0001A78584609F0C0FDDFF87C82874B3946BA
